{"contracts/PredictionMarket.sol":{"PredictionMarket":{"abi":[{"inputs":[],"stateMutability":"nonpayable","type":"constructor"},{"inputs":[],"name":"AlreadyBet","type":"error"},{"inputs":[],"name":"BetTooSmall","type":"error"},{"inputs":[],"name":"DeadlineNotPassed","type":"error"},{"inputs":[],"name":"DeadlinePassed","type":"error"},{"inputs":[],"name":"MarketAlreadyActive","type":"error"},{"inputs":[],"name":"MarketNotActive","type":"error"},{"inputs":[],"name":"MarketNotResolved","type":"error"},{"inputs":[],"name":"NotHook","type":"error"},{"inputs":[],"name":"NotOwner","type":"error"},{"inputs":[],"name":"NothingToClaim","type":"error"},{"inputs":[],"name":"TransferFailed","type":"error"},{"anonymous":false,"inputs":[{"indexed":true,"internalType":"uint256","name":"marketId","type":"uint256"},{"indexed":true,"internalType":"address","name":"bettor","type":"address"},{"indexed":false,"internalType":"enum PredictionMarket.Side","name":"side","type":"uint8"},{"indexed":false,"internalType":"uint256","name":"amount","type":"uint256"}],"name":"BetPlaced","type":"event"},{"anonymous":false,"inputs":[{"indexed":true,"internalType":"uint256","name":"marketId","type":"uint256"},{"indexed":false,"internalType":"string","name":"asset","type":"string"},{"indexed":false,"internalType":"string","name":"question","type":"string"},{"indexed":false,"internalType":"uint256","name":"targetPrice","type":"uint256"},{"indexed":false,"internalType":"uint256","name":"deadline","type":"uint256"}],"name":"MarketCreated","type":"event"},{"anonymous":false,"inputs":[{"indexed":true,"internalType":"uint256","name":"marketId","type":"uint256"},{"indexed":false,"internalType":"string","name":"asset","type":"string"},{"indexed":false,"internalType":"enum PredictionMarket.Status","name":"result","type":"uint8"},{"indexed":false,"internalType":"uint256","name":"yesPool","type":"uint256"},{"indexed":false,"internalType":"uint256","name":"noPool","type":"uint256"}],"name":"MarketResolved","type":"event"},{"anonymous":false,"inputs":[{"indexed":true,"internalType":"uint256","name":"marketId","type":"uint256"},{"indexed":true,"internalType":"address","name":"bettor","type":"address"},{"indexed":false,"internalType":"uint256","name":"amount","type":"uint256"}],"name":"PayoutClaimed","type":"event"},{"inputs":[],"name":"MIN_BET","outputs":[{"internalType":"uint256","name":"","type":"uint256"}],"stateMutability":"view","type":"function"},{"inputs":[{"internalType":"string","name":"","type":"string"}],"name":"activeMarketByAsset","outputs":[{"internalType":"uint256","name":"","type":"uint256"}],"stateMutability":"view","type":"function"},{"inputs":[{"internalType":"uint256","name":"","type":"uint256"},{"internalType":"address","name":"","type":"address"}],"name":"bets","outputs":[{"internalType":"enum PredictionMarket.Side","name":"side","type":"uint8"},{"internalType":"uint256","name":"amount","type":"uint256"},{"internalType":"bool","name":"claimed","type":"bool"}],"stateMutability":"view","type":"function"},{"inputs":[{"internalType":"uint256","name":"marketId","type":"uint256"}],"name":"claimPayout","outputs":[],"stateMutability":"nonpayable","type":"function"},{"inputs":[{"internalType":"string","name":"asset_","type":"string"},{"internalType":"string","name":"question_","type":"string"},{"internalType":"uint256","name":"targetPrice_","type":"uint256"},{"internalType":"uint256","name":"createdPrice_","type":"uint256"},{"internalType":"uint256","name":"duration_","type":"uint256"}],"name":"createMarket","outputs":[{"internalType":"uint256","name":"marketId","type":"uint256"}],"stateMutability":"nonpayable","type":"function"},{"inputs":[{"internalType":"string","name":"asset_","type":"string"}],"name":"getActiveMarketId","outputs":[{"internalType":"uint256","name":"","type":"uint256"}],"stateMutability":"view","type":"function"},{"inputs":[{"internalType":"uint256","name":"marketId","type":"uint256"}],"name":"getMarket","outputs":[{"components":[{"internalType":"uint256","name":"id","type":"uint256"},{"internalType":"string","name":"asset","type":"string"},{"internalType":"string","name":"question","type":"string"},{"internalType":"uint256","name":"targetPrice","type":"uint256"},{"internalType":"uint256","name":"createdPrice","type":"uint256"},{"internalType":"uint256","name":"deadline","type":"uint256"},{"internalType":"enum PredictionMarket.Status","name":"status","type":"uint8"},{"internalType":"uint256","name":"yesPool","type":"uint256"},{"internalType":"uint256","name":"noPool","type":"uint256"},{"internalType":"uint256","name":"resolvedAt","type":"uint256"}],"internalType":"struct PredictionMarket.Market","name":"","type":"tuple"}],"stateMutability":"view","type":"function"},{"inputs":[{"internalType":"uint256","name":"marketId","type":"uint256"}],"name":"getTotalPool","outputs":[{"internalType":"uint256","name":"","type":"uint256"}],"stateMutability":"view","type":"function"},{"inputs":[{"internalType":"uint256","name":"marketId","type":"uint256"},{"internalType":"address","name":"user","type":"address"}],"name":"getUserBet","outputs":[{"components":[{"internalType":"enum PredictionMarket.Side","name":"side","type":"uint8"},{"internalType":"uint256","name":"amount","type":"uint256"},{"internalType":"bool","name":"claimed","type":"bool"}],"internalType":"struct PredictionMarket.Bet","name":"","type":"tuple"}],"stateMutability":"view","type":"function"},{"inputs":[],"name":"hook","outputs":[{"internalType":"address","name":"","type":"address"}],"stateMutability":"view","type":"function"},{"inputs":[{"internalType":"uint256","name":"","type":"uint256"}],"name":"markets","outputs":[{"internalType":"uint256","name":"id","type":"uint256"},{"internalType":"string","name":"asset","type":"string"},{"internalType":"string","name":"question","type":"string"},{"internalType":"uint256","name":"targetPrice","type":"uint256"},{"internalType":"uint256","name":"createdPrice","type":"uint256"},{"internalType":"uint256","name":"deadline","type":"uint256"},{"internalType":"enum PredictionMarket.Status","name":"status","type":"uint8"},{"internalType":"uint256","name":"yesPool","type":"uint256"},{"internalType":"uint256","name":"noPool","type":"uint256"},{"internalType":"uint256","name":"resolvedAt","type":"uint256"}],"stateMutability":"view","type":"function"},{"inputs":[],"name":"nextMarketId","outputs":[{"internalType":"uint256","name":"","type":"uint256"}],"stateMutability":"view","type":"function"},{"inputs":[],"name":"owner","outputs":[{"internalType":"address","name":"","type":"address"}],"stateMutability":"view","type":"function"},{"inputs":[{"internalType":"uint256","name":"marketId","type":"uint256"},{"internalType":"enum PredictionMarket.Side","name":"side","type":"uint8"}],"name":"placeBet","outputs":[],"stateMutability":"payable","type":"function"},{"inputs":[{"internalType":"uint256","name":"marketId","type":"uint256"},{"internalType":"bool","name":"hitTarget","type":"bool"}],"name":"resolveMarket","outputs":[],"stateMutability":"nonpayable","type":"function"},{"inputs":[{"internalType":"address","name":"hook_","type":"address"}],"name":"setHook","outputs":[],"stateMutability":"nonpayable","type":"function"}],"evm":{"bytecode":{"linkReferences":{},"object":"608060405234801561001057600080fd5b50600080546001600160a01b03191633179055600160025561185a806100376000396000f3fe6080604052600436106100f35760003560e01c80638a69614e1161008a578063c03fb87c11610059578063c03fb87c146102b7578063de7d891b146102e4578063eb44fdd314610304578063f644b3bb1461033157600080fd5b80638a69614e146102215780638da5cb5b146102415780639bd1d51314610261578063b1283e771461028157600080fd5b8063406ef2ef116100c6578063406ef2ef1461019857806357bde446146101ae5780636540742f146101ce5780637f5a7c7b146101e957600080fd5b806303edf914146100f85780632f95cb161461010d5780633a35b9bd146101585780633dfd387314610178575b600080fd5b61010b61010636600461101c565b61038c565b005b34801561011957600080fd5b506101456101283660046110f3565b805160208183018101805160058252928201919093012091525481565b6040519081526020015b60405180910390f35b34801561016457600080fd5b50610145610173366004611130565b61057e565b34801561018457600080fd5b5061010b610193366004611165565b6105a7565b3480156101a457600080fd5b5061014560025481565b3480156101ba57600080fd5b5061010b6101c9366004611180565b6105f4565b3480156101da57600080fd5b5061014566038d7ea4c6800081565b3480156101f557600080fd5b50600154610209906001600160a01b031681565b6040516001600160a01b03909116815260200161014f565b34801561022d57600080fd5b5061010b61023c366004611130565b610766565b34801561024d57600080fd5b50600054610209906001600160a01b031681565b34801561026d57600080fd5b5061014561027c3660046111aa565b61098a565b34801561028d57600080fd5b506102a161029c366004611130565b610bcc565b60405161014f9a999897969594939291906112a3565b3480156102c357600080fd5b506102d76102d2366004611316565b610d2f565b60405161014f9190611352565b3480156102f057600080fd5b506101456102ff366004611381565b610dc3565b34801561031057600080fd5b5061032461031f366004611130565b610dee565b60405161014f91906113f3565b34801561033d57600080fd5b5061037d61034c366004611316565b600460209081526000928352604080842090915290825290208054600182015460029092015460ff91821692911683565b60405161014f9392919061149a565b600082815260036020526040812090600682015460ff1660038111156103b4576103b4611279565b146103d257604051635a90bb8d60e11b815260040160405180910390fd5b806005015442106103f65760405163387b2e5560e11b815260040160405180910390fd5b66038d7ea4c6800034101561041e57604051631a6254d160e31b815260040160405180910390fd5b600083815260046020908152604080832033845290915290206001015415610459576040516354103a1760e11b815260040160405180910390fd5b604051806060016040528083600181111561047657610476611279565b81523460208083019190915260006040928301819052868152600482528281203382529091522081518154829060ff1916600183818111156104ba576104ba611279565b0217905550602082015160018201556040909101516002909101805460ff191691151591909117905560008260018111156104f7576104f7611279565b0361051b573481600701600082825461051091906114d4565b909155506105359050565b3481600801600082825461052f91906114d4565b90915550505b336001600160a01b0316837f4f1eed5e863a822b0f9eb960dfdab2cc5a99beec4b191f2a7a9c7e28e5a1552484346040516105719291906114e7565b60405180910390a3505050565b6000818152600360205260408120600881015460078201546105a091906114d4565b9392505050565b6000546001600160a01b031633146105d2576040516330cd747160e01b815260040160405180910390fd5b600180546001600160a01b0319166001600160a01b0392909216919091179055565b6001546001600160a01b0316331480159061061a57506000546001600160a01b03163314155b15610638576040516318e59f8760e31b815260040160405180910390fd5b600082815260036020526040812090600682015460ff16600381111561066057610660611279565b1461067e57604051635a90bb8d60e11b815260040160405180910390fd5b8115801561068f5750806005015442105b156106ad576040516302eb354360e41b815260040160405180910390fd5b816106b95760026106bc565b60015b60068201805460ff191660018360038111156106da576106da611279565b02179055504260098201556040516000906005906106fc90600185019061153c565b9081526040519081900360200181209190915560068201546007830154600884015486937f6daed6078a6adb5d5ff2ab96a746db9fbd1549399b7ad9e3aa29299e2a723b089361075993600188019360ff909216929091906115b2565b60405180910390a2505050565b60008181526003602090815260408083206004835281842033855290925282209091600683015460ff1660038111156107a1576107a1611279565b036107bf5760405163174b639360e11b815260040160405180910390fd5b600181015415806107d45750600281015460ff165b156107f2576040516312d37ee560e31b815260040160405180910390fd5b60006001600684015460ff16600381111561080f5761080f611279565b149050600081801561083657506000835460ff16600181111561083457610834611279565b145b8061085f57508115801561085f57506001835460ff16600181111561085d5761085d611279565b145b90508061087f576040516312d37ee560e31b815260040160405180910390fd5b600082610890578460080154610896565b84600701545b90506000856008015486600701546108ae91906114d4565b90506000828287600101546108c3919061165c565b6108cd9190611673565b60028701805460ff19166001179055604051909150600090339083908381818185875af1925050503d8060008114610921576040519150601f19603f3d011682016040523d82523d6000602084013e610926565b606091505b5050905080610948576040516312171d8360e31b815260040160405180910390fd5b60405182815233908a907fe97cee5a4c0549d3fdc81e322b718ddf0aeb3418ec87dce4f9a7fb28d117c3129060200160405180910390a3505050505050505050565b6001546000906001600160a01b031633148015906109b357506000546001600160a01b03163314155b156109d1576040516318e59f8760e31b815260040160405180910390fd5b60006005876040516109e39190611695565b908152602001604051809103902054905080600014610a4457600081815260036020526040812090600682015460ff166003811115610a2457610a24611279565b03610a4257604051635712b69360e11b815260040160405180910390fd5b505b60028054906000610a54836116b1565b9190505591506040518061014001604052808381526020018881526020018781526020018681526020018581526020018442610a9091906114d4565b81526020016000815260006020808301829052604080840183905260609093018290528582526003815291902082518155908201516001820190610ad4908261171b565b5060408201516002820190610ae9908261171b565b50606082015181600301556080820151816004015560a0820151816005015560c08201518160060160006101000a81548160ff02191690836003811115610b3257610b32611279565b021790555060e082015181600701556101008201518160080155610120820151816009015590505081600588604051610b6b9190611695565b90815260405190819003602001902055817f17d90d3582c74be4b748fcd33bff502fbee3da6e29c772512a0b6eac36528be8888888610baa88426114d4565b604051610bba94939291906117db565b60405180910390a25095945050505050565b60036020526000908152604090208054600182018054919291610bee90611502565b80601f0160208091040260200160405190810160405280929190818152602001828054610c1a90611502565b8015610c675780601f10610c3c57610100808354040283529160200191610c67565b820191906000526020600020905b815481529060010190602001808311610c4a57829003601f168201915b505050505090806002018054610c7c90611502565b80601f0160208091040260200160405190810160405280929190818152602001828054610ca890611502565b8015610cf55780601f10610cca57610100808354040283529160200191610cf5565b820191906000526020600020905b815481529060010190602001808311610cd857829003601f168201915b5050506003840154600485015460058601546006870154600788015460088901546009909901549798949793965091945060ff169290918a565b604080516060808201835260008083526020808401829052838501829052868252600481528482206001600160a01b038716835290528390208351918201909352825491929091829060ff166001811115610d8c57610d8c611279565b6001811115610d9d57610d9d611279565b81526001820154602082015260029091015460ff16151560409091015290505b92915050565b600060058383604051610dd7929190611814565b908152602001604051809103902054905092915050565b610df6610fb8565b600360008381526020019081526020016000206040518061014001604052908160008201548152602001600182018054610e2f90611502565b80601f0160208091040260200160405190810160405280929190818152602001828054610e5b90611502565b8015610ea85780601f10610e7d57610100808354040283529160200191610ea8565b820191906000526020600020905b815481529060010190602001808311610e8b57829003601f168201915b50505050508152602001600282018054610ec190611502565b80601f0160208091040260200160405190810160405280929190818152602001828054610eed90611502565b8015610f3a5780601f10610f0f57610100808354040283529160200191610f3a565b820191906000526020600020905b815481529060010190602001808311610f1d57829003601f168201915b505050918352505060038281015460208301526004830154604083015260058301546060830152600683015460809092019160ff1690811115610f7f57610f7f611279565b6003811115610f9057610f90611279565b8152600782015460208201526008820154604082015260099091015460609091015292915050565b6040518061014001604052806000815260200160608152602001606081526020016000815260200160008152602001600081526020016000600381111561100157611001611279565b81526020016000815260200160008152602001600081525090565b6000806040838503121561102f57600080fd5b8235915060208301356002811061104557600080fd5b809150509250929050565b634e487b7160e01b600052604160045260246000fd5b600082601f83011261107757600080fd5b813567ffffffffffffffff8082111561109257611092611050565b604051601f8301601f19908116603f011681019082821181831017156110ba576110ba611050565b816040528381528660208588010111156110d357600080fd5b836020870160208301376000602085830101528094505050505092915050565b60006020828403121561110557600080fd5b813567ffffffffffffffff81111561111c57600080fd5b61112884828501611066565b949350505050565b60006020828403121561114257600080fd5b5035919050565b80356001600160a01b038116811461116057600080fd5b919050565b60006020828403121561117757600080fd5b6105a082611149565b6000806040838503121561119357600080fd5b823591506020830135801515811461104557600080fd5b600080600080600060a086880312156111c257600080fd5b853567ffffffffffffffff808211156111da57600080fd5b6111e689838a01611066565b965060208801359150808211156111fc57600080fd5b5061120988828901611066565b959895975050505060408401359360608101359360809091013592509050565b60005b8381101561124457818101518382015260200161122c565b50506000910152565b60008151808452611265816020860160208601611229565b601f01601f19169290920160200192915050565b634e487b7160e01b600052602160045260246000fd5b6004811061129f5761129f611279565b9052565b60006101408c83528060208401526112bd8184018d61124d565b905082810360408401526112d1818c61124d565b9150508860608301528760808301528660a08301526112f360c083018761128f565b8460e083015283610100830152826101208301529b9a5050505050505050505050565b6000806040838503121561132957600080fd5b8235915061133960208401611149565b90509250929050565b6002811061129f5761129f611279565b6000606082019050611365828451611342565b6020830151602083015260408301511515604083015292915050565b6000806020838503121561139457600080fd5b823567ffffffffffffffff808211156113ac57600080fd5b818501915085601f8301126113c057600080fd5b8135818111156113cf57600080fd5b8660208285010111156113e157600080fd5b60209290920196919550909350505050565b60208152815160208201526000602083015161014080604085015261141c61016085018361124d565b91506040850151601f19858403016060860152611439838261124d565b92505060608501516080850152608085015160a085015260a085015160c085015260c085015161146c60e086018261128f565b5060e08501516101008581019190915285015161012080860191909152909401519390920192909252919050565b606081016114a88286611342565b8360208301528215156040830152949350505050565b634e487b7160e01b600052601160045260246000fd5b80820180821115610dbd57610dbd6114be565b604081016114f58285611342565b8260208301529392505050565b600181811c9082168061151657607f821691505b60208210810361153657634e487b7160e01b600052602260045260246000fd5b50919050565b600080835461154a81611502565b600182811680156115625760018114611577576115a6565b60ff19841687528215158302870194506115a6565b8760005260208060002060005b8581101561159d5781548a820152908401908201611584565b50505082870194505b50929695505050505050565b6080815260008086546115c481611502565b80608086015260a06001808416600081146115e6576001811461160257611634565b60ff19851660a089015260a084151560051b8901019550611634565b8b60005260208060002060005b8681101561162a5781548b820187015290840190820161160f565b8a0160a001975050505b50505050508091505061164a602083018661128f565b60408201939093526060015292915050565b8082028115828204841417610dbd57610dbd6114be565b60008261169057634e487b7160e01b600052601260045260246000fd5b500490565b600082516116a7818460208701611229565b9190910192915050565b6000600182016116c3576116c36114be565b5060010190565b601f821115611716576000816000526020600020601f850160051c810160208610156116f35750805b601f850160051c820191505b81811015611712578281556001016116ff565b5050505b505050565b815167ffffffffffffffff81111561173557611735611050565b611749816117438454611502565b846116ca565b602080601f83116001811461177e57600084156117665750858301515b600019600386901b1c1916600185901b178555611712565b600085815260208120601f198616915b828110156117ad5788860151825594840194600190910190840161178e565b50858210156117cb5787850151600019600388901b60f8161c191681555b5050505050600190811b01905550565b6080815260006117ee608083018761124d565b8281036020840152611800818761124d565b604084019590955250506060015292915050565b818382376000910190815291905056fea264697066735822122046636df7ac91554209a57d4e81ca0c177a349fd55e53816977ee17ae6afe443364736f6c63430008180033","opcodes":"PUSH1 0x80 PUSH1 0x40 MSTORE CALLVALUE DUP1 ISZERO PUSH2 0x10 JUMPI PUSH1 0x0 DUP1 REVERT JUMPDEST POP PUSH1 0x0 DUP1 SLOAD PUSH1 0x1 PUSH1 0x1 PUSH1 0xA0 SHL SUB NOT AND CALLER OR SWAP1 SSTORE PUSH1 0x1 PUSH1 0x2 SSTORE PUSH2 0x185A DUP1 PUSH2 0x37 PUSH1 0x0 CODECOPY PUSH1 0x0 RETURN INVALID PUSH1 0x80 PUSH1 0x40 MSTORE PUSH1 0x4 CALLDATASIZE LT PUSH2 0xF3 JUMPI PUSH1 0x0 CALLDATALOAD PUSH1 0xE0 SHR DUP1 PUSH4 0x8A69614E GT PUSH2 0x8A JUMPI DUP1 PUSH4 0xC03FB87C GT PUSH2 0x59 JUMPI DUP1 PUSH4 0xC03FB87C EQ PUSH2 0x2B7 JUMPI DUP1 PUSH4 0xDE7D891B EQ PUSH2 0x2E4 JUMPI DUP1 PUSH4 0xEB44FDD3 EQ PUSH2 0x304 JUMPI DUP1 PUSH4 0xF644B3BB EQ PUSH2 0x331 JUMPI PUSH1 0x0 DUP1 REVERT JUMPDEST DUP1 PUSH4 0x8A69614E EQ PUSH2 0x221 JUMPI DUP1 PUSH4 0x8DA5CB5B EQ PUSH2 0x241 JUMPI DUP1 PUSH4 0x9BD1D513 EQ PUSH2 0x261 JUMPI DUP1 PUSH4 0xB1283E77 EQ PUSH2 0x281 JUMPI PUSH1 0x0 DUP1 REVERT JUMPDEST DUP1 PUSH4 0x406EF2EF GT PUSH2 0xC6 JUMPI DUP1 PUSH4 0x406EF2EF EQ PUSH2 0x198 JUMPI DUP1 PUSH4 0x57BDE446 EQ PUSH2 0x1AE JUMPI DUP1 PUSH4 0x6540742F EQ PUSH2 0x1CE JUMPI DUP1 PUSH4 0x7F5A7C7B EQ PUSH2 0x1E9 JUMPI PUSH1 0x0 DUP1 REVERT JUMPDEST DUP1 PUSH4 0x3EDF914 EQ PUSH2 0xF8 JUMPI DUP1 PUSH4 0x2F95CB16 EQ PUSH2 0x10D JUMPI DUP1 PUSH4 0x3A35B9BD EQ PUSH2 0x158 JUMPI DUP1 PUSH4 0x3DFD3873 EQ PUSH2 0x178 JUMPI JUMPDEST PUSH1 0x0 DUP1 REVERT JUMPDEST PUSH2 0x10B PUSH2 0x106 CALLDATASIZE PUSH1 0x4 PUSH2 0x101C JUMP JUMPDEST PUSH2 0x38C JUMP JUMPDEST STOP JUMPDEST CALLVALUE DUP1 ISZERO PUSH2 0x119 JUMPI PUSH1 0x0 DUP1 REVERT JUMPDEST POP PUSH2 0x145 PUSH2 0x128 CALLDATASIZE PUSH1 0x4 PUSH2 0x10F3 JUMP JUMPDEST DUP1 MLOAD PUSH1 0x20 DUP2 DUP4 ADD DUP2 ADD DUP1 MLOAD PUSH1 0x5 DUP3 MSTORE SWAP3 DUP3 ADD SWAP2 SWAP1 SWAP4 ADD KECCAK256 SWAP2 MSTORE SLOAD DUP2 JUMP JUMPDEST PUSH1 0x40 MLOAD SWAP1 DUP2 MSTORE PUSH1 0x20 ADD JUMPDEST PUSH1 0x40 MLOAD DUP1 SWAP2 SUB SWAP1 RETURN JUMPDEST CALLVALUE DUP1 ISZERO PUSH2 0x164 JUMPI PUSH1 0x0 DUP1 REVERT JUMPDEST POP PUSH2 0x145 PUSH2 0x173 CALLDATASIZE PUSH1 0x4 PUSH2 0x1130 JUMP JUMPDEST PUSH2 0x57E JUMP JUMPDEST CALLVALUE DUP1 ISZERO PUSH2 0x184 JUMPI PUSH1 0x0 DUP1 REVERT JUMPDEST POP PUSH2 0x10B PUSH2 0x193 CALLDATASIZE PUSH1 0x4 PUSH2 0x1165 JUMP JUMPDEST PUSH2 0x5A7 JUMP JUMPDEST CALLVALUE DUP1 ISZERO PUSH2 0x1A4 JUMPI PUSH1 0x0 DUP1 REVERT JUMPDEST POP PUSH2 0x145 PUSH1 0x2 SLOAD DUP2 JUMP JUMPDEST CALLVALUE DUP1 ISZERO PUSH2 0x1BA JUMPI PUSH1 0x0 DUP1 REVERT JUMPDEST POP PUSH2 0x10B PUSH2 0x1C9 CALLDATASIZE PUSH1 0x4 PUSH2 0x1180 JUMP JUMPDEST PUSH2 0x5F4 JUMP JUMPDEST CALLVALUE DUP1 ISZERO PUSH2 0x1DA JUMPI PUSH1 0x0 DUP1 REVERT JUMPDEST POP PUSH2 0x145 PUSH7 0x38D7EA4C68000 DUP2 JUMP JUMPDEST CALLVALUE DUP1 ISZERO PUSH2 0x1F5 JUMPI PUSH1 0x0 DUP1 REVERT JUMPDEST POP PUSH1 0x1 SLOAD PUSH2 0x209 SWAP1 PUSH1 0x1 PUSH1 0x1 PUSH1 0xA0 SHL SUB AND DUP2 JUMP JUMPDEST PUSH1 0x40 MLOAD PUSH1 0x1 PUSH1 0x1 PUSH1 0xA0 SHL SUB SWAP1 SWAP2 AND DUP2 MSTORE PUSH1 0x20 ADD PUSH2 0x14F JUMP JUMPDEST CALLVALUE DUP1 ISZERO PUSH2 0x22D JUMPI PUSH1 0x0 DUP1 REVERT JUMPDEST POP PUSH2 0x10B PUSH2 0x23C CALLDATASIZE PUSH1 0x4 PUSH2 0x1130 JUMP JUMPDEST PUSH2 0x766 JUMP JUMPDEST CALLVALUE DUP1 ISZERO PUSH2 0x24D JUMPI PUSH1 0x0 DUP1 REVERT JUMPDEST POP PUSH1 0x0 SLOAD PUSH2 0x209 SWAP1 PUSH1 0x1 PUSH1 0x1 PUSH1 0xA0 SHL SUB AND DUP2 JUMP JUMPDEST CALLVALUE DUP1 ISZERO PUSH2 0x26D JUMPI PUSH1 0x0 DUP1 REVERT JUMPDEST POP PUSH2 0x145 PUSH2 0x27C CALLDATASIZE PUSH1 0x4 PUSH2 0x11AA JUMP JUMPDEST PUSH2 0x98A JUMP JUMPDEST CALLVALUE DUP1 ISZERO PUSH2 0x28D JUMPI PUSH1 0x0 DUP1 REVERT JUMPDEST POP PUSH2 0x2A1 PUSH2 0x29C CALLDATASIZE PUSH1 0x4 PUSH2 0x1130 JUMP JUMPDEST PUSH2 0xBCC JUMP JUMPDEST PUSH1 0x40 MLOAD PUSH2 0x14F SWAP11 SWAP10 SWAP9 SWAP8 SWAP7 SWAP6 SWAP5 SWAP4 SWAP3 SWAP2 SWAP1 PUSH2 0x12A3 JUMP JUMPDEST CALLVALUE DUP1 ISZERO PUSH2 0x2C3 JUMPI PUSH1 0x0 DUP1 REVERT JUMPDEST POP PUSH2 0x2D7 PUSH2 0x2D2 CALLDATASIZE PUSH1 0x4 PUSH2 0x1316 JUMP JUMPDEST PUSH2 0xD2F JUMP JUMPDEST PUSH1 0x40 MLOAD PUSH2 0x14F SWAP2 SWAP1 PUSH2 0x1352 JUMP JUMPDEST CALLVALUE DUP1 ISZERO PUSH2 0x2F0 JUMPI PUSH1 0x0 DUP1 REVERT JUMPDEST POP PUSH2 0x145 PUSH2 0x2FF CALLDATASIZE PUSH1 0x4 PUSH2 0x1381 JUMP JUMPDEST PUSH2 0xDC3 JUMP JUMPDEST CALLVALUE DUP1 ISZERO PUSH2 0x310 JUMPI PUSH1 0x0 DUP1 REVERT JUMPDEST POP PUSH2 0x324 PUSH2 0x31F CALLDATASIZE PUSH1 0x4 PUSH2 0x1130 JUMP JUMPDEST PUSH2 0xDEE JUMP JUMPDEST PUSH1 0x40 MLOAD PUSH2 0x14F SWAP2 SWAP1 PUSH2 0x13F3 JUMP JUMPDEST CALLVALUE DUP1 ISZERO PUSH2 0x33D JUMPI PUSH1 0x0 DUP1 REVERT JUMPDEST POP PUSH2 0x37D PUSH2 0x34C CALLDATASIZE PUSH1 0x4 PUSH2 0x1316 JUMP JUMPDEST PUSH1 0x4 PUSH1 0x20 SWAP1 DUP2 MSTORE PUSH1 0x0 SWAP3 DUP4 MSTORE PUSH1 0x40 DUP1 DUP5 KECCAK256 SWAP1 SWAP2 MSTORE SWAP1 DUP3 MSTORE SWAP1 KECCAK256 DUP1 SLOAD PUSH1 0x1 DUP3 ADD SLOAD PUSH1 0x2 SWAP1 SWAP3 ADD SLOAD PUSH1 0xFF SWAP2 DUP3 AND SWAP3 SWAP2 AND DUP4 JUMP JUMPDEST PUSH1 0x40 MLOAD PUSH2 0x14F SWAP4 SWAP3 SWAP2 SWAP1 PUSH2 0x149A JUMP JUMPDEST PUSH1 0x0 DUP3 DUP2 MSTORE PUSH1 0x3 PUSH1 0x20 MSTORE PUSH1 0x40 DUP2 KECCAK256 SWAP1 PUSH1 0x6 DUP3 ADD SLOAD PUSH1 0xFF AND PUSH1 0x3 DUP2 GT ISZERO PUSH2 0x3B4 JUMPI PUSH2 0x3B4 PUSH2 0x1279 JUMP JUMPDEST EQ PUSH2 0x3D2 JUMPI PUSH1 0x40 MLOAD PUSH4 0x5A90BB8D PUSH1 0xE1 SHL DUP2 MSTORE PUSH1 0x4 ADD PUSH1 0x40 MLOAD DUP1 SWAP2 SUB SWAP1 REVERT JUMPDEST DUP1 PUSH1 0x5 ADD SLOAD TIMESTAMP LT PUSH2 0x3F6 JUMPI PUSH1 0x40 MLOAD PUSH4 0x387B2E55 PUSH1 0xE1 SHL DUP2 MSTORE PUSH1 0x4 ADD PUSH1 0x40 MLOAD DUP1 SWAP2 SUB SWAP1 REVERT JUMPDEST PUSH7 0x38D7EA4C68000 CALLVALUE LT ISZERO PUSH2 0x41E JUMPI PUSH1 0x40 MLOAD PUSH4 0x1A6254D1 PUSH1 0xE3 SHL DUP2 MSTORE PUSH1 0x4 ADD PUSH1 0x40 MLOAD DUP1 SWAP2 SUB SWAP1 REVERT JUMPDEST PUSH1 0x0 DUP4 DUP2 MSTORE PUSH1 0x4 PUSH1 0x20 SWAP1 DUP2 MSTORE PUSH1 0x40 DUP1 DUP4 KECCAK256 CALLER DUP5 MSTORE SWAP1 SWAP2 MSTORE SWAP1 KECCAK256 PUSH1 0x1 ADD SLOAD ISZERO PUSH2 0x459 JUMPI PUSH1 0x40 MLOAD PUSH4 0x54103A17 PUSH1 0xE1 SHL DUP2 MSTORE PUSH1 0x4 ADD PUSH1 0x40 MLOAD DUP1 SWAP2 SUB SWAP1 REVERT JUMPDEST PUSH1 0x40 MLOAD DUP1 PUSH1 0x60 ADD PUSH1 0x40 MSTORE DUP1 DUP4 PUSH1 0x1 DUP2 GT ISZERO PUSH2 0x476 JUMPI PUSH2 0x476 PUSH2 0x1279 JUMP JUMPDEST DUP2 MSTORE CALLVALUE PUSH1 0x20 DUP1 DUP4 ADD SWAP2 SWAP1 SWAP2 MSTORE PUSH1 0x0 PUSH1 0x40 SWAP3 DUP4 ADD DUP2 SWAP1 MSTORE DUP7 DUP2 MSTORE PUSH1 0x4 DUP3 MSTORE DUP3 DUP2 KECCAK256 CALLER DUP3 MSTORE SWAP1 SWAP2 MSTORE KECCAK256 DUP2 MLOAD DUP2 SLOAD DUP3 SWAP1 PUSH1 0xFF NOT AND PUSH1 0x1 DUP4 DUP2 DUP2 GT ISZERO PUSH2 0x4BA JUMPI PUSH2 0x4BA PUSH2 0x1279 JUMP JUMPDEST MUL OR SWAP1 SSTORE POP PUSH1 0x20 DUP3 ADD MLOAD PUSH1 0x1 DUP3 ADD SSTORE PUSH1 0x40 SWAP1 SWAP2 ADD MLOAD PUSH1 0x2 SWAP1 SWAP2 ADD DUP1 SLOAD PUSH1 0xFF NOT AND SWAP2 ISZERO ISZERO SWAP2 SWAP1 SWAP2 OR SWAP1 SSTORE PUSH1 0x0 DUP3 PUSH1 0x1 DUP2 GT ISZERO PUSH2 0x4F7 JUMPI PUSH2 0x4F7 PUSH2 0x1279 JUMP JUMPDEST SUB PUSH2 0x51B JUMPI CALLVALUE DUP2 PUSH1 0x7 ADD PUSH1 0x0 DUP3 DUP3 SLOAD PUSH2 0x510 SWAP2 SWAP1 PUSH2 0x14D4 JUMP JUMPDEST SWAP1 SWAP2 SSTORE POP PUSH2 0x535 SWAP1 POP JUMP JUMPDEST CALLVALUE DUP2 PUSH1 0x8 ADD PUSH1 0x0 DUP3 DUP3 SLOAD PUSH2 0x52F SWAP2 SWAP1 PUSH2 0x14D4 JUMP JUMPDEST SWAP1 SWAP2 SSTORE POP POP JUMPDEST CALLER PUSH1 0x1 PUSH1 0x1 PUSH1 0xA0 SHL SUB AND DUP4 PUSH32 0x4F1EED5E863A822B0F9EB960DFDAB2CC5A99BEEC4B191F2A7A9C7E28E5A15524 DUP5 CALLVALUE PUSH1 0x40 MLOAD PUSH2 0x571 SWAP3 SWAP2 SWAP1 PUSH2 0x14E7 JUMP JUMPDEST PUSH1 0x40 MLOAD DUP1 SWAP2 SUB SWAP1 LOG3 POP POP POP JUMP JUMPDEST PUSH1 0x0 DUP2 DUP2 MSTORE PUSH1 0x3 PUSH1 0x20 MSTORE PUSH1 0x40 DUP2 KECCAK256 PUSH1 0x8 DUP2 ADD SLOAD PUSH1 0x7 DUP3 ADD SLOAD PUSH2 0x5A0 SWAP2 SWAP1 PUSH2 0x14D4 JUMP JUMPDEST SWAP4 SWAP3 POP POP POP JUMP JUMPDEST PUSH1 0x0 SLOAD PUSH1 0x1 PUSH1 0x1 PUSH1 0xA0 SHL SUB AND CALLER EQ PUSH2 0x5D2 JUMPI PUSH1 0x40 MLOAD PUSH4 0x30CD7471 PUSH1 0xE0 SHL DUP2 MSTORE PUSH1 0x4 ADD PUSH1 0x40 MLOAD DUP1 SWAP2 SUB SWAP1 REVERT JUMPDEST PUSH1 0x1 DUP1 SLOAD PUSH1 0x1 PUSH1 0x1 PUSH1 0xA0 SHL SUB NOT AND PUSH1 0x1 PUSH1 0x1 PUSH1 0xA0 SHL SUB SWAP3 SWAP1 SWAP3 AND SWAP2 SWAP1 SWAP2 OR SWAP1 SSTORE JUMP JUMPDEST PUSH1 0x1 SLOAD PUSH1 0x1 PUSH1 0x1 PUSH1 0xA0 SHL SUB AND CALLER EQ DUP1 ISZERO SWAP1 PUSH2 0x61A JUMPI POP PUSH1 0x0 SLOAD PUSH1 0x1 PUSH1 0x1 PUSH1 0xA0 SHL SUB AND CALLER EQ ISZERO JUMPDEST ISZERO PUSH2 0x638 JUMPI PUSH1 0x40 MLOAD PUSH4 0x18E59F87 PUSH1 0xE3 SHL DUP2 MSTORE PUSH1 0x4 ADD PUSH1 0x40 MLOAD DUP1 SWAP2 SUB SWAP1 REVERT JUMPDEST PUSH1 0x0 DUP3 DUP2 MSTORE PUSH1 0x3 PUSH1 0x20 MSTORE PUSH1 0x40 DUP2 KECCAK256 SWAP1 PUSH1 0x6 DUP3 ADD SLOAD PUSH1 0xFF AND PUSH1 0x3 DUP2 GT ISZERO PUSH2 0x660 JUMPI PUSH2 0x660 PUSH2 0x1279 JUMP JUMPDEST EQ PUSH2 0x67E JUMPI PUSH1 0x40 MLOAD PUSH4 0x5A90BB8D PUSH1 0xE1 SHL DUP2 MSTORE PUSH1 0x4 ADD PUSH1 0x40 MLOAD DUP1 SWAP2 SUB SWAP1 REVERT JUMPDEST DUP2 ISZERO DUP1 ISZERO PUSH2 0x68F JUMPI POP DUP1 PUSH1 0x5 ADD SLOAD TIMESTAMP LT JUMPDEST ISZERO PUSH2 0x6AD JUMPI PUSH1 0x40 MLOAD PUSH4 0x2EB3543 PUSH1 0xE4 SHL DUP2 MSTORE PUSH1 0x4 ADD PUSH1 0x40 MLOAD DUP1 SWAP2 SUB SWAP1 REVERT JUMPDEST DUP2 PUSH2 0x6B9 JUMPI PUSH1 0x2 PUSH2 0x6BC JUMP JUMPDEST PUSH1 0x1 JUMPDEST PUSH1 0x6 DUP3 ADD DUP1 SLOAD PUSH1 0xFF NOT AND PUSH1 0x1 DUP4 PUSH1 0x3 DUP2 GT ISZERO PUSH2 0x6DA JUMPI PUSH2 0x6DA PUSH2 0x1279 JUMP JUMPDEST MUL OR SWAP1 SSTORE POP TIMESTAMP PUSH1 0x9 DUP3 ADD SSTORE PUSH1 0x40 MLOAD PUSH1 0x0 SWAP1 PUSH1 0x5 SWAP1 PUSH2 0x6FC SWAP1 PUSH1 0x1 DUP6 ADD SWAP1 PUSH2 0x153C JUMP JUMPDEST SWAP1 DUP2 MSTORE PUSH1 0x40 MLOAD SWAP1 DUP2 SWAP1 SUB PUSH1 0x20 ADD DUP2 KECCAK256 SWAP2 SWAP1 SWAP2 SSTORE PUSH1 0x6 DUP3 ADD SLOAD PUSH1 0x7 DUP4 ADD SLOAD PUSH1 0x8 DUP5 ADD SLOAD DUP7 SWAP4 PUSH32 0x6DAED6078A6ADB5D5FF2AB96A746DB9FBD1549399B7AD9E3AA29299E2A723B08 SWAP4 PUSH2 0x759 SWAP4 PUSH1 0x1 DUP9 ADD SWAP4 PUSH1 0xFF SWAP1 SWAP3 AND SWAP3 SWAP1 SWAP2 SWAP1 PUSH2 0x15B2 JUMP JUMPDEST PUSH1 0x40 MLOAD DUP1 SWAP2 SUB SWAP1 LOG2 POP POP POP JUMP JUMPDEST PUSH1 0x0 DUP2 DUP2 MSTORE PUSH1 0x3 PUSH1 0x20 SWAP1 DUP2 MSTORE PUSH1 0x40 DUP1 DUP4 KECCAK256 PUSH1 0x4 DUP4 MSTORE DUP2 DUP5 KECCAK256 CALLER DUP6 MSTORE SWAP1 SWAP3 MSTORE DUP3 KECCAK256 SWAP1 SWAP2 PUSH1 0x6 DUP4 ADD SLOAD PUSH1 0xFF AND PUSH1 0x3 DUP2 GT ISZERO PUSH2 0x7A1 JUMPI PUSH2 0x7A1 PUSH2 0x1279 JUMP JUMPDEST SUB PUSH2 0x7BF JUMPI PUSH1 0x40 MLOAD PUSH4 0x174B6393 PUSH1 0xE1 SHL DUP2 MSTORE PUSH1 0x4 ADD PUSH1 0x40 MLOAD DUP1 SWAP2 SUB SWAP1 REVERT JUMPDEST PUSH1 0x1 DUP2 ADD SLOAD ISZERO DUP1 PUSH2 0x7D4 JUMPI POP PUSH1 0x2 DUP2 ADD SLOAD PUSH1 0xFF AND JUMPDEST ISZERO PUSH2 0x7F2 JUMPI PUSH1 0x40 MLOAD PUSH4 0x12D37EE5 PUSH1 0xE3 SHL DUP2 MSTORE PUSH1 0x4 ADD PUSH1 0x40 MLOAD DUP1 SWAP2 SUB SWAP1 REVERT JUMPDEST PUSH1 0x0 PUSH1 0x1 PUSH1 0x6 DUP5 ADD SLOAD PUSH1 0xFF AND PUSH1 0x3 DUP2 GT ISZERO PUSH2 0x80F JUMPI PUSH2 0x80F PUSH2 0x1279 JUMP JUMPDEST EQ SWAP1 POP PUSH1 0x0 DUP2 DUP1 ISZERO PUSH2 0x836 JUMPI POP PUSH1 0x0 DUP4 SLOAD PUSH1 0xFF AND PUSH1 0x1 DUP2 GT ISZERO PUSH2 0x834 JUMPI PUSH2 0x834 PUSH2 0x1279 JUMP JUMPDEST EQ JUMPDEST DUP1 PUSH2 0x85F JUMPI POP DUP2 ISZERO DUP1 ISZERO PUSH2 0x85F JUMPI POP PUSH1 0x1 DUP4 SLOAD PUSH1 0xFF AND PUSH1 0x1 DUP2 GT ISZERO PUSH2 0x85D JUMPI PUSH2 0x85D PUSH2 0x1279 JUMP JUMPDEST EQ JUMPDEST SWAP1 POP DUP1 PUSH2 0x87F JUMPI PUSH1 0x40 MLOAD PUSH4 0x12D37EE5 PUSH1 0xE3 SHL DUP2 MSTORE PUSH1 0x4 ADD PUSH1 0x40 MLOAD DUP1 SWAP2 SUB SWAP1 REVERT JUMPDEST PUSH1 0x0 DUP3 PUSH2 0x890 JUMPI DUP5 PUSH1 0x8 ADD SLOAD PUSH2 0x896 JUMP JUMPDEST DUP5 PUSH1 0x7 ADD SLOAD JUMPDEST SWAP1 POP PUSH1 0x0 DUP6 PUSH1 0x8 ADD SLOAD DUP7 PUSH1 0x7 ADD SLOAD PUSH2 0x8AE SWAP2 SWAP1 PUSH2 0x14D4 JUMP JUMPDEST SWAP1 POP PUSH1 0x0 DUP3 DUP3 DUP8 PUSH1 0x1 ADD SLOAD PUSH2 0x8C3 SWAP2 SWAP1 PUSH2 0x165C JUMP JUMPDEST PUSH2 0x8CD SWAP2 SWAP1 PUSH2 0x1673 JUMP JUMPDEST PUSH1 0x2 DUP8 ADD DUP1 SLOAD PUSH1 0xFF NOT AND PUSH1 0x1 OR SWAP1 SSTORE PUSH1 0x40 MLOAD SWAP1 SWAP2 POP PUSH1 0x0 SWAP1 CALLER SWAP1 DUP4 SWAP1 DUP4 DUP2 DUP2 DUP2 DUP6 DUP8 GAS CALL SWAP3 POP POP POP RETURNDATASIZE DUP1 PUSH1 0x0 DUP2 EQ PUSH2 0x921 JUMPI PUSH1 0x40 MLOAD SWAP2 POP PUSH1 0x1F NOT PUSH1 0x3F RETURNDATASIZE ADD AND DUP3 ADD PUSH1 0x40 MSTORE RETURNDATASIZE DUP3 MSTORE RETURNDATASIZE PUSH1 0x0 PUSH1 0x20 DUP5 ADD RETURNDATACOPY PUSH2 0x926 JUMP JUMPDEST PUSH1 0x60 SWAP2 POP JUMPDEST POP POP SWAP1 POP DUP1 PUSH2 0x948 JUMPI PUSH1 0x40 MLOAD PUSH4 0x12171D83 PUSH1 0xE3 SHL DUP2 MSTORE PUSH1 0x4 ADD PUSH1 0x40 MLOAD DUP1 SWAP2 SUB SWAP1 REVERT JUMPDEST PUSH1 0x40 MLOAD DUP3 DUP2 MSTORE CALLER SWAP1 DUP11 SWAP1 PUSH32 0xE97CEE5A4C0549D3FDC81E322B718DDF0AEB3418EC87DCE4F9A7FB28D117C312 SWAP1 PUSH1 0x20 ADD PUSH1 0x40 MLOAD DUP1 SWAP2 SUB SWAP1 LOG3 POP POP POP POP POP POP POP POP POP JUMP JUMPDEST PUSH1 0x1 SLOAD PUSH1 0x0 SWAP1 PUSH1 0x1 PUSH1 0x1 PUSH1 0xA0 SHL SUB AND CALLER EQ DUP1 ISZERO SWAP1 PUSH2 0x9B3 JUMPI POP PUSH1 0x0 SLOAD PUSH1 0x1 PUSH1 0x1 PUSH1 0xA0 SHL SUB AND CALLER EQ ISZERO JUMPDEST ISZERO PUSH2 0x9D1 JUMPI PUSH1 0x40 MLOAD PUSH4 0x18E59F87 PUSH1 0xE3 SHL DUP2 MSTORE PUSH1 0x4 ADD PUSH1 0x40 MLOAD DUP1 SWAP2 SUB SWAP1 REVERT JUMPDEST PUSH1 0x0 PUSH1 0x5 DUP8 PUSH1 0x40 MLOAD PUSH2 0x9E3 SWAP2 SWAP1 PUSH2 0x1695 JUMP JUMPDEST SWAP1 DUP2 MSTORE PUSH1 0x20 ADD PUSH1 0x40 MLOAD DUP1 SWAP2 SUB SWAP1 KECCAK256 SLOAD SWAP1 POP DUP1 PUSH1 0x0 EQ PUSH2 0xA44 JUMPI PUSH1 0x0 DUP2 DUP2 MSTORE PUSH1 0x3 PUSH1 0x20 MSTORE PUSH1 0x40 DUP2 KECCAK256 SWAP1 PUSH1 0x6 DUP3 ADD SLOAD PUSH1 0xFF AND PUSH1 0x3 DUP2 GT ISZERO PUSH2 0xA24 JUMPI PUSH2 0xA24 PUSH2 0x1279 JUMP JUMPDEST SUB PUSH2 0xA42 JUMPI PUSH1 0x40 MLOAD PUSH4 0x5712B693 PUSH1 0xE1 SHL DUP2 MSTORE PUSH1 0x4 ADD PUSH1 0x40 MLOAD DUP1 SWAP2 SUB SWAP1 REVERT JUMPDEST POP JUMPDEST PUSH1 0x2 DUP1 SLOAD SWAP1 PUSH1 0x0 PUSH2 0xA54 DUP4 PUSH2 0x16B1 JUMP JUMPDEST SWAP2 SWAP1 POP SSTORE SWAP2 POP PUSH1 0x40 MLOAD DUP1 PUSH2 0x140 ADD PUSH1 0x40 MSTORE DUP1 DUP4 DUP2 MSTORE PUSH1 0x20 ADD DUP9 DUP2 MSTORE PUSH1 0x20 ADD DUP8 DUP2 MSTORE PUSH1 0x20 ADD DUP7 DUP2 MSTORE PUSH1 0x20 ADD DUP6 DUP2 MSTORE PUSH1 0x20 ADD DUP5 TIMESTAMP PUSH2 0xA90 SWAP2 SWAP1 PUSH2 0x14D4 JUMP JUMPDEST DUP2 MSTORE PUSH1 0x20 ADD PUSH1 0x0 DUP2 MSTORE PUSH1 0x0 PUSH1 0x20 DUP1 DUP4 ADD DUP3 SWAP1 MSTORE PUSH1 0x40 DUP1 DUP5 ADD DUP4 SWAP1 MSTORE PUSH1 0x60 SWAP1 SWAP4 ADD DUP3 SWAP1 MSTORE DUP6 DUP3 MSTORE PUSH1 0x3 DUP2 MSTORE SWAP2 SWAP1 KECCAK256 DUP3 MLOAD DUP2 SSTORE SWAP1 DUP3 ADD MLOAD PUSH1 0x1 DUP3 ADD SWAP1 PUSH2 0xAD4 SWAP1 DUP3 PUSH2 0x171B JUMP JUMPDEST POP PUSH1 0x40 DUP3 ADD MLOAD PUSH1 0x2 DUP3 ADD SWAP1 PUSH2 0xAE9 SWAP1 DUP3 PUSH2 0x171B JUMP JUMPDEST POP PUSH1 0x60 DUP3 ADD MLOAD DUP2 PUSH1 0x3 ADD SSTORE PUSH1 0x80 DUP3 ADD MLOAD DUP2 PUSH1 0x4 ADD SSTORE PUSH1 0xA0 DUP3 ADD MLOAD DUP2 PUSH1 0x5 ADD SSTORE PUSH1 0xC0 DUP3 ADD MLOAD DUP2 PUSH1 0x6 ADD PUSH1 0x0 PUSH2 0x100 EXP DUP2 SLOAD DUP2 PUSH1 0xFF MUL NOT AND SWAP1 DUP4 PUSH1 0x3 DUP2 GT ISZERO PUSH2 0xB32 JUMPI PUSH2 0xB32 PUSH2 0x1279 JUMP JUMPDEST MUL OR SWAP1 SSTORE POP PUSH1 0xE0 DUP3 ADD MLOAD DUP2 PUSH1 0x7 ADD SSTORE PUSH2 0x100 DUP3 ADD MLOAD DUP2 PUSH1 0x8 ADD SSTORE PUSH2 0x120 DUP3 ADD MLOAD DUP2 PUSH1 0x9 ADD SSTORE SWAP1 POP POP DUP2 PUSH1 0x5 DUP9 PUSH1 0x40 MLOAD PUSH2 0xB6B SWAP2 SWAP1 PUSH2 0x1695 JUMP JUMPDEST SWAP1 DUP2 MSTORE PUSH1 0x40 MLOAD SWAP1 DUP2 SWAP1 SUB PUSH1 0x20 ADD SWAP1 KECCAK256 SSTORE DUP2 PUSH32 0x17D90D3582C74BE4B748FCD33BFF502FBEE3DA6E29C772512A0B6EAC36528BE8 DUP9 DUP9 DUP9 PUSH2 0xBAA DUP9 TIMESTAMP PUSH2 0x14D4 JUMP JUMPDEST PUSH1 0x40 MLOAD PUSH2 0xBBA SWAP5 SWAP4 SWAP3 SWAP2 SWAP1 PUSH2 0x17DB JUMP JUMPDEST PUSH1 0x40 MLOAD DUP1 SWAP2 SUB SWAP1 LOG2 POP SWAP6 SWAP5 POP POP POP POP POP JUMP JUMPDEST PUSH1 0x3 PUSH1 0x20 MSTORE PUSH1 0x0 SWAP1 DUP2 MSTORE PUSH1 0x40 SWAP1 KECCAK256 DUP1 SLOAD PUSH1 0x1 DUP3 ADD DUP1 SLOAD SWAP2 SWAP3 SWAP2 PUSH2 0xBEE SWAP1 PUSH2 0x1502 JUMP JUMPDEST DUP1 PUSH1 0x1F ADD PUSH1 0x20 DUP1 SWAP2 DIV MUL PUSH1 0x20 ADD PUSH1 0x40 MLOAD SWAP1 DUP2 ADD PUSH1 0x40 MSTORE DUP1 SWAP3 SWAP2 SWAP1 DUP2 DUP2 MSTORE PUSH1 0x20 ADD DUP3 DUP1 SLOAD PUSH2 0xC1A SWAP1 PUSH2 0x1502 JUMP JUMPDEST DUP1 ISZERO PUSH2 0xC67 JUMPI DUP1 PUSH1 0x1F LT PUSH2 0xC3C JUMPI PUSH2 0x100 DUP1 DUP4 SLOAD DIV MUL DUP4 MSTORE SWAP2 PUSH1 0x20 ADD SWAP2 PUSH2 0xC67 JUMP JUMPDEST DUP3 ADD SWAP2 SWAP1 PUSH1 0x0 MSTORE PUSH1 0x20 PUSH1 0x0 KECCAK256 SWAP1 JUMPDEST DUP2 SLOAD DUP2 MSTORE SWAP1 PUSH1 0x1 ADD SWAP1 PUSH1 0x20 ADD DUP1 DUP4 GT PUSH2 0xC4A JUMPI DUP3 SWAP1 SUB PUSH1 0x1F AND DUP3 ADD SWAP2 JUMPDEST POP POP POP POP POP SWAP1 DUP1 PUSH1 0x2 ADD DUP1 SLOAD PUSH2 0xC7C SWAP1 PUSH2 0x1502 JUMP JUMPDEST DUP1 PUSH1 0x1F ADD PUSH1 0x20 DUP1 SWAP2 DIV MUL PUSH1 0x20 ADD PUSH1 0x40 MLOAD SWAP1 DUP2 ADD PUSH1 0x40 MSTORE DUP1 SWAP3 SWAP2 SWAP1 DUP2 DUP2 MSTORE PUSH1 0x20 ADD DUP3 DUP1 SLOAD PUSH2 0xCA8 SWAP1 PUSH2 0x1502 JUMP JUMPDEST DUP1 ISZERO PUSH2 0xCF5 JUMPI DUP1 PUSH1 0x1F LT PUSH2 0xCCA JUMPI PUSH2 0x100 DUP1 DUP4 SLOAD DIV MUL DUP4 MSTORE SWAP2 PUSH1 0x20 ADD SWAP2 PUSH2 0xCF5 JUMP JUMPDEST DUP3 ADD SWAP2 SWAP1 PUSH1 0x0 MSTORE PUSH1 0x20 PUSH1 0x0 KECCAK256 SWAP1 JUMPDEST DUP2 SLOAD DUP2 MSTORE SWAP1 PUSH1 0x1 ADD SWAP1 PUSH1 0x20 ADD DUP1 DUP4 GT PUSH2 0xCD8 JUMPI DUP3 SWAP1 SUB PUSH1 0x1F AND DUP3 ADD SWAP2 JUMPDEST POP POP POP PUSH1 0x3 DUP5 ADD SLOAD PUSH1 0x4 DUP6 ADD SLOAD PUSH1 0x5 DUP7 ADD SLOAD PUSH1 0x6 DUP8 ADD SLOAD PUSH1 0x7 DUP9 ADD SLOAD PUSH1 0x8 DUP10 ADD SLOAD PUSH1 0x9 SWAP1 SWAP10 ADD SLOAD SWAP8 SWAP9 SWAP5 SWAP8 SWAP4 SWAP7 POP SWAP2 SWAP5 POP PUSH1 0xFF AND SWAP3 SWAP1 SWAP2 DUP11 JUMP JUMPDEST PUSH1 0x40 DUP1 MLOAD PUSH1 0x60 DUP1 DUP3 ADD DUP4 MSTORE PUSH1 0x0 DUP1 DUP4 MSTORE PUSH1 0x20 DUP1 DUP5 ADD DUP3 SWAP1 MSTORE DUP4 DUP6 ADD DUP3 SWAP1 MSTORE DUP7 DUP3 MSTORE PUSH1 0x4 DUP2 MSTORE DUP5 DUP3 KECCAK256 PUSH1 0x1 PUSH1 0x1 PUSH1 0xA0 SHL SUB DUP8 AND DUP4 MSTORE SWAP1 MSTORE DUP4 SWAP1 KECCAK256 DUP4 MLOAD SWAP2 DUP3 ADD SWAP1 SWAP4 MSTORE DUP3 SLOAD SWAP2 SWAP3 SWAP1 SWAP2 DUP3 SWAP1 PUSH1 0xFF AND PUSH1 0x1 DUP2 GT ISZERO PUSH2 0xD8C JUMPI PUSH2 0xD8C PUSH2 0x1279 JUMP JUMPDEST PUSH1 0x1 DUP2 GT ISZERO PUSH2 0xD9D JUMPI PUSH2 0xD9D PUSH2 0x1279 JUMP JUMPDEST DUP2 MSTORE PUSH1 0x1 DUP3 ADD SLOAD PUSH1 0x20 DUP3 ADD MSTORE PUSH1 0x2 SWAP1 SWAP2 ADD SLOAD PUSH1 0xFF AND ISZERO ISZERO PUSH1 0x40 SWAP1 SWAP2 ADD MSTORE SWAP1 POP JUMPDEST SWAP3 SWAP2 POP POP JUMP JUMPDEST PUSH1 0x0 PUSH1 0x5 DUP4 DUP4 PUSH1 0x40 MLOAD PUSH2 0xDD7 SWAP3 SWAP2 SWAP1 PUSH2 0x1814 JUMP JUMPDEST SWAP1 DUP2 MSTORE PUSH1 0x20 ADD PUSH1 0x40 MLOAD DUP1 SWAP2 SUB SWAP1 KECCAK256 SLOAD SWAP1 POP SWAP3 SWAP2 POP POP JUMP JUMPDEST PUSH2 0xDF6 PUSH2 0xFB8 JUMP JUMPDEST PUSH1 0x3 PUSH1 0x0 DUP4 DUP2 MSTORE PUSH1 0x20 ADD SWAP1 DUP2 MSTORE PUSH1 0x20 ADD PUSH1 0x0 KECCAK256 PUSH1 0x40 MLOAD DUP1 PUSH2 0x140 ADD PUSH1 0x40 MSTORE SWAP1 DUP2 PUSH1 0x0 DUP3 ADD SLOAD DUP2 MSTORE PUSH1 0x20 ADD PUSH1 0x1 DUP3 ADD DUP1 SLOAD PUSH2 0xE2F SWAP1 PUSH2 0x1502 JUMP JUMPDEST DUP1 PUSH1 0x1F ADD PUSH1 0x20 DUP1 SWAP2 DIV MUL PUSH1 0x20 ADD PUSH1 0x40 MLOAD SWAP1 DUP2 ADD PUSH1 0x40 MSTORE DUP1 SWAP3 SWAP2 SWAP1 DUP2 DUP2 MSTORE PUSH1 0x20 ADD DUP3 DUP1 SLOAD PUSH2 0xE5B SWAP1 PUSH2 0x1502 JUMP JUMPDEST DUP1 ISZERO PUSH2 0xEA8 JUMPI DUP1 PUSH1 0x1F LT PUSH2 0xE7D JUMPI PUSH2 0x100 DUP1 DUP4 SLOAD DIV MUL DUP4 MSTORE SWAP2 PUSH1 0x20 ADD SWAP2 PUSH2 0xEA8 JUMP JUMPDEST DUP3 ADD SWAP2 SWAP1 PUSH1 0x0 MSTORE PUSH1 0x20 PUSH1 0x0 KECCAK256 SWAP1 JUMPDEST DUP2 SLOAD DUP2 MSTORE SWAP1 PUSH1 0x1 ADD SWAP1 PUSH1 0x20 ADD DUP1 DUP4 GT PUSH2 0xE8B JUMPI DUP3 SWAP1 SUB PUSH1 0x1F AND DUP3 ADD SWAP2 JUMPDEST POP POP POP POP POP DUP2 MSTORE PUSH1 0x20 ADD PUSH1 0x2 DUP3 ADD DUP1 SLOAD PUSH2 0xEC1 SWAP1 PUSH2 0x1502 JUMP JUMPDEST DUP1 PUSH1 0x1F ADD PUSH1 0x20 DUP1 SWAP2 DIV MUL PUSH1 0x20 ADD PUSH1 0x40 MLOAD SWAP1 DUP2 ADD PUSH1 0x40 MSTORE DUP1 SWAP3 SWAP2 SWAP1 DUP2 DUP2 MSTORE PUSH1 0x20 ADD DUP3 DUP1 SLOAD PUSH2 0xEED SWAP1 PUSH2 0x1502 JUMP JUMPDEST DUP1 ISZERO PUSH2 0xF3A JUMPI DUP1 PUSH1 0x1F LT PUSH2 0xF0F JUMPI PUSH2 0x100 DUP1 DUP4 SLOAD DIV MUL DUP4 MSTORE SWAP2 PUSH1 0x20 ADD SWAP2 PUSH2 0xF3A JUMP JUMPDEST DUP3 ADD SWAP2 SWAP1 PUSH1 0x0 MSTORE PUSH1 0x20 PUSH1 0x0 KECCAK256 SWAP1 JUMPDEST DUP2 SLOAD DUP2 MSTORE SWAP1 PUSH1 0x1 ADD SWAP1 PUSH1 0x20 ADD DUP1 DUP4 GT PUSH2 0xF1D JUMPI DUP3 SWAP1 SUB PUSH1 0x1F AND DUP3 ADD SWAP2 JUMPDEST POP POP POP SWAP2 DUP4 MSTORE POP POP PUSH1 0x3 DUP3 DUP2 ADD SLOAD PUSH1 0x20 DUP4 ADD MSTORE PUSH1 0x4 DUP4 ADD SLOAD PUSH1 0x40 DUP4 ADD MSTORE PUSH1 0x5 DUP4 ADD SLOAD PUSH1 0x60 DUP4 ADD MSTORE PUSH1 0x6 DUP4 ADD SLOAD PUSH1 0x80 SWAP1 SWAP3 ADD SWAP2 PUSH1 0xFF AND SWAP1 DUP2 GT ISZERO PUSH2 0xF7F JUMPI PUSH2 0xF7F PUSH2 0x1279 JUMP JUMPDEST PUSH1 0x3 DUP2 GT ISZERO PUSH2 0xF90 JUMPI PUSH2 0xF90 PUSH2 0x1279 JUMP JUMPDEST DUP2 MSTORE PUSH1 0x7 DUP3 ADD SLOAD PUSH1 0x20 DUP3 ADD MSTORE PUSH1 0x8 DUP3 ADD SLOAD PUSH1 0x40 DUP3 ADD MSTORE PUSH1 0x9 SWAP1 SWAP2 ADD SLOAD PUSH1 0x60 SWAP1 SWAP2 ADD MSTORE SWAP3 SWAP2 POP POP JUMP JUMPDEST PUSH1 0x40 MLOAD DUP1 PUSH2 0x140 ADD PUSH1 0x40 MSTORE DUP1 PUSH1 0x0 DUP2 MSTORE PUSH1 0x20 ADD PUSH1 0x60 DUP2 MSTORE PUSH1 0x20 ADD PUSH1 0x60 DUP2 MSTORE PUSH1 0x20 ADD PUSH1 0x0 DUP2 MSTORE PUSH1 0x20 ADD PUSH1 0x0 DUP2 MSTORE PUSH1 0x20 ADD PUSH1 0x0 DUP2 MSTORE PUSH1 0x20 ADD PUSH1 0x0 PUSH1 0x3 DUP2 GT ISZERO PUSH2 0x1001 JUMPI PUSH2 0x1001 PUSH2 0x1279 JUMP JUMPDEST DUP2 MSTORE PUSH1 0x20 ADD PUSH1 0x0 DUP2 MSTORE PUSH1 0x20 ADD PUSH1 0x0 DUP2 MSTORE PUSH1 0x20 ADD PUSH1 0x0 DUP2 MSTORE POP SWAP1 JUMP JUMPDEST PUSH1 0x0 DUP1 PUSH1 0x40 DUP4 DUP6 SUB SLT ISZERO PUSH2 0x102F JUMPI PUSH1 0x0 DUP1 REVERT JUMPDEST DUP3 CALLDATALOAD SWAP2 POP PUSH1 0x20 DUP4 ADD CALLDATALOAD PUSH1 0x2 DUP2 LT PUSH2 0x1045 JUMPI PUSH1 0x0 DUP1 REVERT JUMPDEST DUP1 SWAP2 POP POP SWAP3 POP SWAP3 SWAP1 POP JUMP JUMPDEST PUSH4 0x4E487B71 PUSH1 0xE0 SHL PUSH1 0x0 MSTORE PUSH1 0x41 PUSH1 0x4 MSTORE PUSH1 0x24 PUSH1 0x0 REVERT JUMPDEST PUSH1 0x0 DUP3 PUSH1 0x1F DUP4 ADD SLT PUSH2 0x1077 JUMPI PUSH1 0x0 DUP1 REVERT JUMPDEST DUP2 CALLDATALOAD PUSH8 0xFFFFFFFFFFFFFFFF DUP1 DUP3 GT ISZERO PUSH2 0x1092 JUMPI PUSH2 0x1092 PUSH2 0x1050 JUMP JUMPDEST PUSH1 0x40 MLOAD PUSH1 0x1F DUP4 ADD PUSH1 0x1F NOT SWAP1 DUP2 AND PUSH1 0x3F ADD AND DUP2 ADD SWAP1 DUP3 DUP3 GT DUP2 DUP4 LT OR ISZERO PUSH2 0x10BA JUMPI PUSH2 0x10BA PUSH2 0x1050 JUMP JUMPDEST DUP2 PUSH1 0x40 MSTORE DUP4 DUP2 MSTORE DUP7 PUSH1 0x20 DUP6 DUP9 ADD ADD GT ISZERO PUSH2 0x10D3 JUMPI PUSH1 0x0 DUP1 REVERT JUMPDEST DUP4 PUSH1 0x20 DUP8 ADD PUSH1 0x20 DUP4 ADD CALLDATACOPY PUSH1 0x0 PUSH1 0x20 DUP6 DUP4 ADD ADD MSTORE DUP1 SWAP5 POP POP POP POP POP SWAP3 SWAP2 POP POP JUMP JUMPDEST PUSH1 0x0 PUSH1 0x20 DUP3 DUP5 SUB SLT ISZERO PUSH2 0x1105 JUMPI PUSH1 0x0 DUP1 REVERT JUMPDEST DUP2 CALLDATALOAD PUSH8 0xFFFFFFFFFFFFFFFF DUP2 GT ISZERO PUSH2 0x111C JUMPI PUSH1 0x0 DUP1 REVERT JUMPDEST PUSH2 0x1128 DUP5 DUP3 DUP6 ADD PUSH2 0x1066 JUMP JUMPDEST SWAP5 SWAP4 POP POP POP POP JUMP JUMPDEST PUSH1 0x0 PUSH1 0x20 DUP3 DUP5 SUB SLT ISZERO PUSH2 0x1142 JUMPI PUSH1 0x0 DUP1 REVERT JUMPDEST POP CALLDATALOAD SWAP2 SWAP1 POP JUMP JUMPDEST DUP1 CALLDATALOAD PUSH1 0x1 PUSH1 0x1 PUSH1 0xA0 SHL SUB DUP2 AND DUP2 EQ PUSH2 0x1160 JUMPI PUSH1 0x0 DUP1 REVERT JUMPDEST SWAP2 SWAP1 POP JUMP JUMPDEST PUSH1 0x0 PUSH1 0x20 DUP3 DUP5 SUB SLT ISZERO PUSH2 0x1177 JUMPI PUSH1 0x0 DUP1 REVERT JUMPDEST PUSH2 0x5A0 DUP3 PUSH2 0x1149 JUMP JUMPDEST PUSH1 0x0 DUP1 PUSH1 0x40 DUP4 DUP6 SUB SLT ISZERO PUSH2 0x1193 JUMPI PUSH1 0x0 DUP1 REVERT JUMPDEST DUP3 CALLDATALOAD SWAP2 POP PUSH1 0x20 DUP4 ADD CALLDATALOAD DUP1 ISZERO ISZERO DUP2 EQ PUSH2 0x1045 JUMPI PUSH1 0x0 DUP1 REVERT JUMPDEST PUSH1 0x0 DUP1 PUSH1 0x0 DUP1 PUSH1 0x0 PUSH1 0xA0 DUP7 DUP9 SUB SLT ISZERO PUSH2 0x11C2 JUMPI PUSH1 0x0 DUP1 REVERT JUMPDEST DUP6 CALLDATALOAD PUSH8 0xFFFFFFFFFFFFFFFF DUP1 DUP3 GT ISZERO PUSH2 0x11DA JUMPI PUSH1 0x0 DUP1 REVERT JUMPDEST PUSH2 0x11E6 DUP10 DUP4 DUP11 ADD PUSH2 0x1066 JUMP JUMPDEST SWAP7 POP PUSH1 0x20 DUP9 ADD CALLDATALOAD SWAP2 POP DUP1 DUP3 GT ISZERO PUSH2 0x11FC JUMPI PUSH1 0x0 DUP1 REVERT JUMPDEST POP PUSH2 0x1209 DUP9 DUP3 DUP10 ADD PUSH2 0x1066 JUMP JUMPDEST SWAP6 SWAP9 SWAP6 SWAP8 POP POP POP POP PUSH1 0x40 DUP5 ADD CALLDATALOAD SWAP4 PUSH1 0x60 DUP2 ADD CALLDATALOAD SWAP4 PUSH1 0x80 SWAP1 SWAP2 ADD CALLDATALOAD SWAP3 POP SWAP1 POP JUMP JUMPDEST PUSH1 0x0 JUMPDEST DUP4 DUP2 LT ISZERO PUSH2 0x1244 JUMPI DUP2 DUP2 ADD MLOAD DUP4 DUP3 ADD MSTORE PUSH1 0x20 ADD PUSH2 0x122C JUMP JUMPDEST POP POP PUSH1 0x0 SWAP2 ADD MSTORE JUMP JUMPDEST PUSH1 0x0 DUP2 MLOAD DUP1 DUP5 MSTORE PUSH2 0x1265 DUP2 PUSH1 0x20 DUP7 ADD PUSH1 0x20 DUP7 ADD PUSH2 0x1229 JUMP JUMPDEST PUSH1 0x1F ADD PUSH1 0x1F NOT AND SWAP3 SWAP1 SWAP3 ADD PUSH1 0x20 ADD SWAP3 SWAP2 POP POP JUMP JUMPDEST PUSH4 0x4E487B71 PUSH1 0xE0 SHL PUSH1 0x0 MSTORE PUSH1 0x21 PUSH1 0x4 MSTORE PUSH1 0x24 PUSH1 0x0 REVERT JUMPDEST PUSH1 0x4 DUP2 LT PUSH2 0x129F JUMPI PUSH2 0x129F PUSH2 0x1279 JUMP JUMPDEST SWAP1 MSTORE JUMP JUMPDEST PUSH1 0x0 PUSH2 0x140 DUP13 DUP4 MSTORE DUP1 PUSH1 0x20 DUP5 ADD MSTORE PUSH2 0x12BD DUP2 DUP5 ADD DUP14 PUSH2 0x124D JUMP JUMPDEST SWAP1 POP DUP3 DUP2 SUB PUSH1 0x40 DUP5 ADD MSTORE PUSH2 0x12D1 DUP2 DUP13 PUSH2 0x124D JUMP JUMPDEST SWAP2 POP POP DUP9 PUSH1 0x60 DUP4 ADD MSTORE DUP8 PUSH1 0x80 DUP4 ADD MSTORE DUP7 PUSH1 0xA0 DUP4 ADD MSTORE PUSH2 0x12F3 PUSH1 0xC0 DUP4 ADD DUP8 PUSH2 0x128F JUMP JUMPDEST DUP5 PUSH1 0xE0 DUP4 ADD MSTORE DUP4 PUSH2 0x100 DUP4 ADD MSTORE DUP3 PUSH2 0x120 DUP4 ADD MSTORE SWAP12 SWAP11 POP POP POP POP POP POP POP POP POP POP POP JUMP JUMPDEST PUSH1 0x0 DUP1 PUSH1 0x40 DUP4 DUP6 SUB SLT ISZERO PUSH2 0x1329 JUMPI PUSH1 0x0 DUP1 REVERT JUMPDEST DUP3 CALLDATALOAD SWAP2 POP PUSH2 0x1339 PUSH1 0x20 DUP5 ADD PUSH2 0x1149 JUMP JUMPDEST SWAP1 POP SWAP3 POP SWAP3 SWAP1 POP JUMP JUMPDEST PUSH1 0x2 DUP2 LT PUSH2 0x129F JUMPI PUSH2 0x129F PUSH2 0x1279 JUMP JUMPDEST PUSH1 0x0 PUSH1 0x60 DUP3 ADD SWAP1 POP PUSH2 0x1365 DUP3 DUP5 MLOAD PUSH2 0x1342 JUMP JUMPDEST PUSH1 0x20 DUP4 ADD MLOAD PUSH1 0x20 DUP4 ADD MSTORE PUSH1 0x40 DUP4 ADD MLOAD ISZERO ISZERO PUSH1 0x40 DUP4 ADD MSTORE SWAP3 SWAP2 POP POP JUMP JUMPDEST PUSH1 0x0 DUP1 PUSH1 0x20 DUP4 DUP6 SUB SLT ISZERO PUSH2 0x1394 JUMPI PUSH1 0x0 DUP1 REVERT JUMPDEST DUP3 CALLDATALOAD PUSH8 0xFFFFFFFFFFFFFFFF DUP1 DUP3 GT ISZERO PUSH2 0x13AC JUMPI PUSH1 0x0 DUP1 REVERT JUMPDEST DUP2 DUP6 ADD SWAP2 POP DUP6 PUSH1 0x1F DUP4 ADD SLT PUSH2 0x13C0 JUMPI PUSH1 0x0 DUP1 REVERT JUMPDEST DUP2 CALLDATALOAD DUP2 DUP2 GT ISZERO PUSH2 0x13CF JUMPI PUSH1 0x0 DUP1 REVERT JUMPDEST DUP7 PUSH1 0x20 DUP3 DUP6 ADD ADD GT ISZERO PUSH2 0x13E1 JUMPI PUSH1 0x0 DUP1 REVERT JUMPDEST PUSH1 0x20 SWAP3 SWAP1 SWAP3 ADD SWAP7 SWAP2 SWAP6 POP SWAP1 SWAP4 POP POP POP POP JUMP JUMPDEST PUSH1 0x20 DUP2 MSTORE DUP2 MLOAD PUSH1 0x20 DUP3 ADD MSTORE PUSH1 0x0 PUSH1 0x20 DUP4 ADD MLOAD PUSH2 0x140 DUP1 PUSH1 0x40 DUP6 ADD MSTORE PUSH2 0x141C PUSH2 0x160 DUP6 ADD DUP4 PUSH2 0x124D JUMP JUMPDEST SWAP2 POP PUSH1 0x40 DUP6 ADD MLOAD PUSH1 0x1F NOT DUP6 DUP5 SUB ADD PUSH1 0x60 DUP7 ADD MSTORE PUSH2 0x1439 DUP4 DUP3 PUSH2 0x124D JUMP JUMPDEST SWAP3 POP POP PUSH1 0x60 DUP6 ADD MLOAD PUSH1 0x80 DUP6 ADD MSTORE PUSH1 0x80 DUP6 ADD MLOAD PUSH1 0xA0 DUP6 ADD MSTORE PUSH1 0xA0 DUP6 ADD MLOAD PUSH1 0xC0 DUP6 ADD MSTORE PUSH1 0xC0 DUP6 ADD MLOAD PUSH2 0x146C PUSH1 0xE0 DUP7 ADD DUP3 PUSH2 0x128F JUMP JUMPDEST POP PUSH1 0xE0 DUP6 ADD MLOAD PUSH2 0x100 DUP6 DUP2 ADD SWAP2 SWAP1 SWAP2 MSTORE DUP6 ADD MLOAD PUSH2 0x120 DUP1 DUP7 ADD SWAP2 SWAP1 SWAP2 MSTORE SWAP1 SWAP5 ADD MLOAD SWAP4 SWAP1 SWAP3 ADD SWAP3 SWAP1 SWAP3 MSTORE SWAP2 SWAP1 POP JUMP JUMPDEST PUSH1 0x60 DUP2 ADD PUSH2 0x14A8 DUP3 DUP7 PUSH2 0x1342 JUMP JUMPDEST DUP4 PUSH1 0x20 DUP4 ADD MSTORE DUP3 ISZERO ISZERO PUSH1 0x40 DUP4 ADD MSTORE SWAP5 SWAP4 POP POP POP POP JUMP JUMPDEST PUSH4 0x4E487B71 PUSH1 0xE0 SHL PUSH1 0x0 MSTORE PUSH1 0x11 PUSH1 0x4 MSTORE PUSH1 0x24 PUSH1 0x0 REVERT JUMPDEST DUP1 DUP3 ADD DUP1 DUP3 GT ISZERO PUSH2 0xDBD JUMPI PUSH2 0xDBD PUSH2 0x14BE JUMP JUMPDEST PUSH1 0x40 DUP2 ADD PUSH2 0x14F5 DUP3 DUP6 PUSH2 0x1342 JUMP JUMPDEST DUP3 PUSH1 0x20 DUP4 ADD MSTORE SWAP4 SWAP3 POP POP POP JUMP JUMPDEST PUSH1 0x1 DUP2 DUP2 SHR SWAP1 DUP3 AND DUP1 PUSH2 0x1516 JUMPI PUSH1 0x7F DUP3 AND SWAP2 POP JUMPDEST PUSH1 0x20 DUP3 LT DUP2 SUB PUSH2 0x1536 JUMPI PUSH4 0x4E487B71 PUSH1 0xE0 SHL PUSH1 0x0 MSTORE PUSH1 0x22 PUSH1 0x4 MSTORE PUSH1 0x24 PUSH1 0x0 REVERT JUMPDEST POP SWAP2 SWAP1 POP JUMP JUMPDEST PUSH1 0x0 DUP1 DUP4 SLOAD PUSH2 0x154A DUP2 PUSH2 0x1502 JUMP JUMPDEST PUSH1 0x1 DUP3 DUP2 AND DUP1 ISZERO PUSH2 0x1562 JUMPI PUSH1 0x1 DUP2 EQ PUSH2 0x1577 JUMPI PUSH2 0x15A6 JUMP JUMPDEST PUSH1 0xFF NOT DUP5 AND DUP8 MSTORE DUP3 ISZERO ISZERO DUP4 MUL DUP8 ADD SWAP5 POP PUSH2 0x15A6 JUMP JUMPDEST DUP8 PUSH1 0x0 MSTORE PUSH1 0x20 DUP1 PUSH1 0x0 KECCAK256 PUSH1 0x0 JUMPDEST DUP6 DUP2 LT ISZERO PUSH2 0x159D JUMPI DUP2 SLOAD DUP11 DUP3 ADD MSTORE SWAP1 DUP5 ADD SWAP1 DUP3 ADD PUSH2 0x1584 JUMP JUMPDEST POP POP POP DUP3 DUP8 ADD SWAP5 POP JUMPDEST POP SWAP3 SWAP7 SWAP6 POP POP POP POP POP POP JUMP JUMPDEST PUSH1 0x80 DUP2 MSTORE PUSH1 0x0 DUP1 DUP7 SLOAD PUSH2 0x15C4 DUP2 PUSH2 0x1502 JUMP JUMPDEST DUP1 PUSH1 0x80 DUP7 ADD MSTORE PUSH1 0xA0 PUSH1 0x1 DUP1 DUP5 AND PUSH1 0x0 DUP2 EQ PUSH2 0x15E6 JUMPI PUSH1 0x1 DUP2 EQ PUSH2 0x1602 JUMPI PUSH2 0x1634 JUMP JUMPDEST PUSH1 0xFF NOT DUP6 AND PUSH1 0xA0 DUP10 ADD MSTORE PUSH1 0xA0 DUP5 ISZERO ISZERO PUSH1 0x5 SHL DUP10 ADD ADD SWAP6 POP PUSH2 0x1634 JUMP JUMPDEST DUP12 PUSH1 0x0 MSTORE PUSH1 0x20 DUP1 PUSH1 0x0 KECCAK256 PUSH1 0x0 JUMPDEST DUP7 DUP2 LT ISZERO PUSH2 0x162A JUMPI DUP2 SLOAD DUP12 DUP3 ADD DUP8 ADD MSTORE SWAP1 DUP5 ADD SWAP1 DUP3 ADD PUSH2 0x160F JUMP JUMPDEST DUP11 ADD PUSH1 0xA0 ADD SWAP8 POP POP POP JUMPDEST POP POP POP POP POP DUP1 SWAP2 POP POP PUSH2 0x164A PUSH1 0x20 DUP4 ADD DUP7 PUSH2 0x128F JUMP JUMPDEST PUSH1 0x40 DUP3 ADD SWAP4 SWAP1 SWAP4 MSTORE PUSH1 0x60 ADD MSTORE SWAP3 SWAP2 POP POP JUMP JUMPDEST DUP1 DUP3 MUL DUP2 ISZERO DUP3 DUP3 DIV DUP5 EQ OR PUSH2 0xDBD JUMPI PUSH2 0xDBD PUSH2 0x14BE JUMP JUMPDEST PUSH1 0x0 DUP3 PUSH2 0x1690 JUMPI PUSH4 0x4E487B71 PUSH1 0xE0 SHL PUSH1 0x0 MSTORE PUSH1 0x12 PUSH1 0x4 MSTORE PUSH1 0x24 PUSH1 0x0 REVERT JUMPDEST POP DIV SWAP1 JUMP JUMPDEST PUSH1 0x0 DUP3 MLOAD PUSH2 0x16A7 DUP2 DUP5 PUSH1 0x20 DUP8 ADD PUSH2 0x1229 JUMP JUMPDEST SWAP2 SWAP1 SWAP2 ADD SWAP3 SWAP2 POP POP JUMP JUMPDEST PUSH1 0x0 PUSH1 0x1 DUP3 ADD PUSH2 0x16C3 JUMPI PUSH2 0x16C3 PUSH2 0x14BE JUMP JUMPDEST POP PUSH1 0x1 ADD SWAP1 JUMP JUMPDEST PUSH1 0x1F DUP3 GT ISZERO PUSH2 0x1716 JUMPI PUSH1 0x0 DUP2 PUSH1 0x0 MSTORE PUSH1 0x20 PUSH1 0x0 KECCAK256 PUSH1 0x1F DUP6 ADD PUSH1 0x5 SHR DUP2 ADD PUSH1 0x20 DUP7 LT ISZERO PUSH2 0x16F3 JUMPI POP DUP1 JUMPDEST PUSH1 0x1F DUP6 ADD PUSH1 0x5 SHR DUP3 ADD SWAP2 POP JUMPDEST DUP2 DUP2 LT ISZERO PUSH2 0x1712 JUMPI DUP3 DUP2 SSTORE PUSH1 0x1 ADD PUSH2 0x16FF JUMP JUMPDEST POP POP POP JUMPDEST POP POP POP JUMP JUMPDEST DUP2 MLOAD PUSH8 0xFFFFFFFFFFFFFFFF DUP2 GT ISZERO PUSH2 0x1735 JUMPI PUSH2 0x1735 PUSH2 0x1050 JUMP JUMPDEST PUSH2 0x1749 DUP2 PUSH2 0x1743 DUP5 SLOAD PUSH2 0x1502 JUMP JUMPDEST DUP5 PUSH2 0x16CA JUMP JUMPDEST PUSH1 0x20 DUP1 PUSH1 0x1F DUP4 GT PUSH1 0x1 DUP2 EQ PUSH2 0x177E JUMPI PUSH1 0x0 DUP5 ISZERO PUSH2 0x1766 JUMPI POP DUP6 DUP4 ADD MLOAD JUMPDEST PUSH1 0x0 NOT PUSH1 0x3 DUP7 SWAP1 SHL SHR NOT AND PUSH1 0x1 DUP6 SWAP1 SHL OR DUP6 SSTORE PUSH2 0x1712 JUMP JUMPDEST PUSH1 0x0 DUP6 DUP2 MSTORE PUSH1 0x20 DUP2 KECCAK256 PUSH1 0x1F NOT DUP7 AND SWAP2 JUMPDEST DUP3 DUP2 LT ISZERO PUSH2 0x17AD JUMPI DUP9 DUP7 ADD MLOAD DUP3 SSTORE SWAP5 DUP5 ADD SWAP5 PUSH1 0x1 SWAP1 SWAP2 ADD SWAP1 DUP5 ADD PUSH2 0x178E JUMP JUMPDEST POP DUP6 DUP3 LT ISZERO PUSH2 0x17CB JUMPI DUP8 DUP6 ADD MLOAD PUSH1 0x0 NOT PUSH1 0x3 DUP9 SWAP1 SHL PUSH1 0xF8 AND SHR NOT AND DUP2 SSTORE JUMPDEST POP POP POP POP POP PUSH1 0x1 SWAP1 DUP2 SHL ADD SWAP1 SSTORE POP JUMP JUMPDEST PUSH1 0x80 DUP2 MSTORE PUSH1 0x0 PUSH2 0x17EE PUSH1 0x80 DUP4 ADD DUP8 PUSH2 0x124D JUMP JUMPDEST DUP3 DUP2 SUB PUSH1 0x20 DUP5 ADD MSTORE PUSH2 0x1800 DUP2 DUP8 PUSH2 0x124D JUMP JUMPDEST PUSH1 0x40 DUP5 ADD SWAP6 SWAP1 SWAP6 MSTORE POP POP PUSH1 0x60 ADD MSTORE SWAP3 SWAP2 POP POP JUMP JUMPDEST DUP2 DUP4 DUP3 CALLDATACOPY PUSH1 0x0 SWAP2 ADD SWAP1 DUP2 MSTORE SWAP2 SWAP1 POP JUMP INVALID LOG2 PUSH5 0x6970667358 0x22 SLT KECCAK256 CHAINID PUSH4 0x6DF7AC91 SSTORE TIMESTAMP MULMOD 0xA5 PUSH30 0x4E81CA0C177A349FD55E53816977EE17AE6AFE443364736F6C6343000818 STOP CALLER "},"methodIdentifiers":{"MIN_BET()":"6540742f","activeMarketByAsset(string)":"2f95cb16","bets(uint256,address)":"f644b3bb","claimPayout(uint256)":"8a69614e","createMarket(string,string,uint256,uint256,uint256)":"9bd1d513","getActiveMarketId(string)":"de7d891b","getMarket(uint256)":"eb44fdd3","getTotalPool(uint256)":"3a35b9bd","getUserBet(uint256,address)":"c03fb87c","hook()":"7f5a7c7b","markets(uint256)":"b1283e77","nextMarketId()":"406ef2ef","owner()":"8da5cb5b","placeBet(uint256,uint8)":"03edf914","resolveMarket(uint256,bool)":"57bde446","setHook(address)":"3dfd3873"}}}}}