{
  "_format": "hh-sol-artifact-1",
  "contractName": "PredictionMarket",
  "sourceName": "contracts/PredictionMarket.sol",
  "abi": [
    {
      "inputs": [],
      "stateMutability": "nonpayable",
      "type": "constructor"
    },
    {
      "inputs": [],
      "name": "AlreadyBet",
      "type": "error"
    },
    {
      "inputs": [],
      "name": "BetTooSmall",
      "type": "error"
    },
    {
      "inputs": [],
      "name": "DeadlineNotPassed",
      "type": "error"
    },
    {
      "inputs": [],
      "name": "DeadlinePassed",
      "type": "error"
    },
    {
      "inputs": [],
      "name": "MarketAlreadyActive",
      "type": "error"
    },
    {
      "inputs": [],
      "name": "MarketNotActive",
      "type": "error"
    },
    {
      "inputs": [],
      "name": "MarketNotResolved",
      "type": "error"
    },
    {
      "inputs": [],
      "name": "NotHook",
      "type": "error"
    },
    {
      "inputs": [],
      "name": "NotOwner",
      "type": "error"
    },
    {
      "inputs": [],
      "name": "NothingToClaim",
      "type": "error"
    },
    {
      "inputs": [],
      "name": "TransferFailed",
      "type": "error"
    },
    {
      "anonymous": false,
      "inputs": [
        {
          "indexed": true,
          "internalType": "uint256",
          "name": "marketId",
          "type": "uint256"
        },
        {
          "indexed": true,
          "internalType": "address",
          "name": "bettor",
          "type": "address"
        },
        {
          "indexed": false,
          "internalType": "enum PredictionMarket.Side",
          "name": "side",
          "type": "uint8"
        },
        {
          "indexed": false,
          "internalType": "uint256",
          "name": "amount",
          "type": "uint256"
        }
      ],
      "name": "BetPlaced",
      "type": "event"
    },
    {
      "anonymous": false,
      "inputs": [
        {
          "indexed": true,
          "internalType": "uint256",
          "name": "marketId",
          "type": "uint256"
        },
        {
          "indexed": false,
          "internalType": "string",
          "name": "asset",
          "type": "string"
        },
        {
          "indexed": false,
          "internalType": "string",
          "name": "question",
          "type": "string"
        },
        {
          "indexed": false,
          "internalType": "uint256",
          "name": "targetPrice",
          "type": "uint256"
        },
        {
          "indexed": false,
          "internalType": "uint256",
          "name": "deadline",
          "type": "uint256"
        }
      ],
      "name": "MarketCreated",
      "type": "event"
    },
    {
      "anonymous": false,
      "inputs": [
        {
          "indexed": true,
          "internalType": "uint256",
          "name": "marketId",
          "type": "uint256"
        },
        {
          "indexed": false,
          "internalType": "string",
          "name": "asset",
          "type": "string"
        },
        {
          "indexed": false,
          "internalType": "enum PredictionMarket.Status",
          "name": "result",
          "type": "uint8"
        },
        {
          "indexed": false,
          "internalType": "uint256",
          "name": "yesPool",
          "type": "uint256"
        },
        {
          "indexed": false,
          "internalType": "uint256",
          "name": "noPool",
          "type": "uint256"
        }
      ],
      "name": "MarketResolved",
      "type": "event"
    },
    {
      "anonymous": false,
      "inputs": [
        {
          "indexed": true,
          "internalType": "uint256",
          "name": "marketId",
          "type": "uint256"
        },
        {
          "indexed": true,
          "internalType": "address",
          "name": "bettor",
          "type": "address"
        },
        {
          "indexed": false,
          "internalType": "uint256",
          "name": "amount",
          "type": "uint256"
        }
      ],
      "name": "PayoutClaimed",
      "type": "event"
    },
    {
      "inputs": [],
      "name": "MIN_BET",
      "outputs": [
        {
          "internalType": "uint256",
          "name": "",
          "type": "uint256"
        }
      ],
      "stateMutability": "view",
      "type": "function"
    },
    {
      "inputs": [
        {
          "internalType": "string",
          "name": "",
          "type": "string"
        }
      ],
      "name": "activeMarketByAsset",
      "outputs": [
        {
          "internalType": "uint256",
          "name": "",
          "type": "uint256"
        }
      ],
      "stateMutability": "view",
      "type": "function"
    },
    {
      "inputs": [
        {
          "internalType": "uint256",
          "name": "",
          "type": "uint256"
        },
        {
          "internalType": "address",
          "name": "",
          "type": "address"
        }
      ],
      "name": "bets",
      "outputs": [
        {
          "internalType": "enum PredictionMarket.Side",
          "name": "side",
          "type": "uint8"
        },
        {
          "internalType": "uint256",
          "name": "amount",
          "type": "uint256"
        },
        {
          "internalType": "bool",
          "name": "claimed",
          "type": "bool"
        }
      ],
      "stateMutability": "view",
      "type": "function"
    },
    {
      "inputs": [
        {
          "internalType": "uint256",
          "name": "marketId",
          "type": "uint256"
        }
      ],
      "name": "claimPayout",
      "outputs": [],
      "stateMutability": "nonpayable",
      "type": "function"
    },
    {
      "inputs": [
        {
          "internalType": "string",
          "name": "asset_",
          "type": "string"
        },
        {
          "internalType": "string",
          "name": "question_",
          "type": "string"
        },
        {
          "internalType": "uint256",
          "name": "targetPrice_",
          "type": "uint256"
        },
        {
          "internalType": "uint256",
          "name": "createdPrice_",
          "type": "uint256"
        },
        {
          "internalType": "uint256",
          "name": "duration_",
          "type": "uint256"
        }
      ],
      "name": "createMarket",
      "outputs": [
        {
          "internalType": "uint256",
          "name": "marketId",
          "type": "uint256"
        }
      ],
      "stateMutability": "nonpayable",
      "type": "function"
    },
    {
      "inputs": [
        {
          "internalType": "string",
          "name": "asset_",
          "type": "string"
        }
      ],
      "name": "getActiveMarketId",
      "outputs": [
        {
          "internalType": "uint256",
          "name": "",
          "type": "uint256"
        }
      ],
      "stateMutability": "view",
      "type": "function"
    },
    {
      "inputs": [
        {
          "internalType": "uint256",
          "name": "marketId",
          "type": "uint256"
        }
      ],
      "name": "getMarket",
      "outputs": [
        {
          "internalType": "uint256",
          "name": "id",
          "type": "uint256"
        },
        {
          "internalType": "string",
          "name": "asset",
          "type": "string"
        },
        {
          "internalType": "string",
          "name": "question",
          "type": "string"
        },
        {
          "internalType": "uint256",
          "name": "targetPrice",
          "type": "uint256"
        },
        {
          "internalType": "uint256",
          "name": "createdPrice",
          "type": "uint256"
        },
        {
          "internalType": "uint256",
          "name": "deadline",
          "type": "uint256"
        },
        {
          "internalType": "uint8",
          "name": "status",
          "type": "uint8"
        },
        {
          "internalType": "uint256",
          "name": "yesPool",
          "type": "uint256"
        },
        {
          "internalType": "uint256",
          "name": "noPool",
          "type": "uint256"
        },
        {
          "internalType": "uint256",
          "name": "resolvedAt",
          "type": "uint256"
        }
      ],
      "stateMutability": "view",
      "type": "function"
    },
    {
      "inputs": [
        {
          "internalType": "uint256",
          "name": "marketId",
          "type": "uint256"
        }
      ],
      "name": "getTotalPool",
      "outputs": [
        {
          "internalType": "uint256",
          "name": "",
          "type": "uint256"
        }
      ],
      "stateMutability": "view",
      "type": "function"
    },
    {
      "inputs": [
        {
          "internalType": "uint256",
          "name": "marketId",
          "type": "uint256"
        },
        {
          "internalType": "address",
          "name": "user",
          "type": "address"
        }
      ],
      "name": "getUserBet",
      "outputs": [
        {
          "components": [
            {
              "internalType": "enum PredictionMarket.Side",
              "name": "side",
              "type": "uint8"
            },
            {
              "internalType": "uint256",
              "name": "amount",
              "type": "uint256"
            },
            {
              "internalType": "bool",
              "name": "claimed",
              "type": "bool"
            }
          ],
          "internalType": "struct PredictionMarket.Bet",
          "name": "",
          "type": "tuple"
        }
      ],
      "stateMutability": "view",
      "type": "function"
    },
    {
      "inputs": [],
      "name": "hook",
      "outputs": [
        {
          "internalType": "address",
          "name": "",
          "type": "address"
        }
      ],
      "stateMutability": "view",
      "type": "function"
    },
    {
      "inputs": [
        {
          "internalType": "uint256",
          "name": "",
          "type": "uint256"
        }
      ],
      "name": "markets",
      "outputs": [
        {
          "internalType": "uint256",
          "name": "id",
          "type": "uint256"
        },
        {
          "internalType": "string",
          "name": "asset",
          "type": "string"
        },
        {
          "internalType": "string",
          "name": "question",
          "type": "string"
        },
        {
          "internalType": "uint256",
          "name": "targetPrice",
          "type": "uint256"
        },
        {
          "internalType": "uint256",
          "name": "createdPrice",
          "type": "uint256"
        },
        {
          "internalType": "uint256",
          "name": "deadline",
          "type": "uint256"
        },
        {
          "internalType": "enum PredictionMarket.Status",
          "name": "status",
          "type": "uint8"
        },
        {
          "internalType": "uint256",
          "name": "yesPool",
          "type": "uint256"
        },
        {
          "internalType": "uint256",
          "name": "noPool",
          "type": "uint256"
        },
        {
          "internalType": "uint256",
          "name": "resolvedAt",
          "type": "uint256"
        }
      ],
      "stateMutability": "view",
      "type": "function"
    },
    {
      "inputs": [],
      "name": "nextMarketId",
      "outputs": [
        {
          "internalType": "uint256",
          "name": "",
          "type": "uint256"
        }
      ],
      "stateMutability": "view",
      "type": "function"
    },
    {
      "inputs": [],
      "name": "owner",
      "outputs": [
        {
          "internalType": "address",
          "name": "",
          "type": "address"
        }
      ],
      "stateMutability": "view",
      "type": "function"
    },
    {
      "inputs": [
        {
          "internalType": "uint256",
          "name": "marketId",
          "type": "uint256"
        },
        {
          "internalType": "enum PredictionMarket.Side",
          "name": "side",
          "type": "uint8"
        }
      ],
      "name": "placeBet",
      "outputs": [],
      "stateMutability": "payable",
      "type": "function"
    },
    {
      "inputs": [
        {
          "internalType": "uint256",
          "name": "marketId",
          "type": "uint256"
        },
        {
          "internalType": "bool",
          "name": "hitTarget",
          "type": "bool"
        }
      ],
      "name": "resolveMarket",
      "outputs": [],
      "stateMutability": "nonpayable",
      "type": "function"
    },
    {
      "inputs": [
        {
          "internalType": "address",
          "name": "hook_",
          "type": "address"
        }
      ],
      "name": "setHook",
      "outputs": [],
      "stateMutability": "nonpayable",
      "type": "function"
    }
  ],
  "bytecode": "0x608060405234801561001057600080fd5b50600080546001600160a01b0319163317905560016002556117a8806100376000396000f3fe6080604052600436106100f35760003560e01c80638a69614e1161008a578063c03fb87c11610059578063c03fb87c146102b7578063de7d891b146102e4578063eb44fdd314610304578063f644b3bb1461033a57600080fd5b80638a69614e146102215780638da5cb5b146102415780639bd1d51314610261578063b1283e771461028157600080fd5b8063406ef2ef116100c6578063406ef2ef1461019857806357bde446146101ae5780636540742f146101ce5780637f5a7c7b146101e957600080fd5b806303edf914146100f85780632f95cb161461010d5780633a35b9bd146101585780633dfd387314610178575b600080fd5b61010b610106366004610fa5565b610395565b005b34801561011957600080fd5b5061014561012836600461107c565b805160208183018101805160058252928201919093012091525481565b6040519081526020015b60405180910390f35b34801561016457600080fd5b506101456101733660046110b9565b610587565b34801561018457600080fd5b5061010b6101933660046110ee565b6105b0565b3480156101a457600080fd5b5061014560025481565b3480156101ba57600080fd5b5061010b6101c9366004611109565b6105fd565b3480156101da57600080fd5b5061014566038d7ea4c6800081565b3480156101f557600080fd5b50600154610209906001600160a01b031681565b6040516001600160a01b03909116815260200161014f565b34801561022d57600080fd5b5061010b61023c3660046110b9565b61076f565b34801561024d57600080fd5b50600054610209906001600160a01b031681565b34801561026d57600080fd5b5061014561027c366004611133565b610993565b34801561028d57600080fd5b506102a161029c3660046110b9565b610bd5565b60405161014f9a9998979695949392919061122c565b3480156102c357600080fd5b506102d76102d236600461129f565b610d38565b60405161014f91906112db565b3480156102f057600080fd5b506101456102ff36600461130a565b610dcc565b34801561031057600080fd5b5061032461031f3660046110b9565b610df7565b60405161014f9a9998979695949392919061137c565b34801561034657600080fd5b5061038661035536600461129f565b600460209081526000928352604080842090915290825290208054600182015460029092015460ff91821692911683565b60405161014f939291906113e8565b600082815260036020526040812090600682015460ff1660038111156103bd576103bd611202565b146103db57604051635a90bb8d60e11b815260040160405180910390fd5b806005015442106103ff5760405163387b2e5560e11b815260040160405180910390fd5b66038d7ea4c6800034101561042757604051631a6254d160e31b815260040160405180910390fd5b600083815260046020908152604080832033845290915290206001015415610462576040516354103a1760e11b815260040160405180910390fd5b604051806060016040528083600181111561047f5761047f611202565b81523460208083019190915260006040928301819052868152600482528281203382529091522081518154829060ff1916600183818111156104c3576104c3611202565b0217905550602082015160018201556040909101516002909101805460ff1916911515919091179055600082600181111561050057610500611202565b0361052457348160070160008282546105199190611422565b9091555061053e9050565b348160080160008282546105389190611422565b90915550505b336001600160a01b0316837f4f1eed5e863a822b0f9eb960dfdab2cc5a99beec4b191f2a7a9c7e28e5a15524843460405161057a929190611435565b60405180910390a3505050565b6000818152600360205260408120600881015460078201546105a99190611422565b9392505050565b6000546001600160a01b031633146105db576040516330cd747160e01b815260040160405180910390fd5b600180546001600160a01b0319166001600160a01b0392909216919091179055565b6001546001600160a01b0316331480159061062357506000546001600160a01b03163314155b15610641576040516318e59f8760e31b815260040160405180910390fd5b600082815260036020526040812090600682015460ff16600381111561066957610669611202565b1461068757604051635a90bb8d60e11b815260040160405180910390fd5b811580156106985750806005015442105b156106b6576040516302eb354360e41b815260040160405180910390fd5b816106c25760026106c5565b60015b60068201805460ff191660018360038111156106e3576106e3611202565b021790555042600982015560405160009060059061070590600185019061148a565b9081526040519081900360200181209190915560068201546007830154600884015486937f6daed6078a6adb5d5ff2ab96a746db9fbd1549399b7ad9e3aa29299e2a723b089361076293600188019360ff90921692909190611500565b60405180910390a2505050565b60008181526003602090815260408083206004835281842033855290925282209091600683015460ff1660038111156107aa576107aa611202565b036107c85760405163174b639360e11b815260040160405180910390fd5b600181015415806107dd5750600281015460ff165b156107fb576040516312d37ee560e31b815260040160405180910390fd5b60006001600684015460ff16600381111561081857610818611202565b149050600081801561083f57506000835460ff16600181111561083d5761083d611202565b145b8061086857508115801561086857506001835460ff16600181111561086657610866611202565b145b905080610888576040516312d37ee560e31b815260040160405180910390fd5b60008261089957846008015461089f565b84600701545b90506000856008015486600701546108b79190611422565b90506000828287600101546108cc91906115aa565b6108d691906115c1565b60028701805460ff19166001179055604051909150600090339083908381818185875af1925050503d806000811461092a576040519150601f19603f3d011682016040523d82523d6000602084013e61092f565b606091505b5050905080610951576040516312171d8360e31b815260040160405180910390fd5b60405182815233908a907fe97cee5a4c0549d3fdc81e322b718ddf0aeb3418ec87dce4f9a7fb28d117c3129060200160405180910390a3505050505050505050565b6001546000906001600160a01b031633148015906109bc57506000546001600160a01b03163314155b156109da576040516318e59f8760e31b815260040160405180910390fd5b60006005876040516109ec91906115e3565b908152602001604051809103902054905080600014610a4d57600081815260036020526040812090600682015460ff166003811115610a2d57610a2d611202565b03610a4b57604051635712b69360e11b815260040160405180910390fd5b505b60028054906000610a5d836115ff565b9190505591506040518061014001604052808381526020018881526020018781526020018681526020018581526020018442610a999190611422565b81526020016000815260006020808301829052604080840183905260609093018290528582526003815291902082518155908201516001820190610add9082611669565b5060408201516002820190610af29082611669565b50606082015181600301556080820151816004015560a0820151816005015560c08201518160060160006101000a81548160ff02191690836003811115610b3b57610b3b611202565b021790555060e082015181600701556101008201518160080155610120820151816009015590505081600588604051610b7491906115e3565b90815260405190819003602001902055817f17d90d3582c74be4b748fcd33bff502fbee3da6e29c772512a0b6eac36528be8888888610bb38842611422565b604051610bc39493929190611729565b60405180910390a25095945050505050565b60036020526000908152604090208054600182018054919291610bf790611450565b80601f0160208091040260200160405190810160405280929190818152602001828054610c2390611450565b8015610c705780601f10610c4557610100808354040283529160200191610c70565b820191906000526020600020905b815481529060010190602001808311610c5357829003601f168201915b505050505090806002018054610c8590611450565b80601f0160208091040260200160405190810160405280929190818152602001828054610cb190611450565b8015610cfe5780601f10610cd357610100808354040283529160200191610cfe565b820191906000526020600020905b815481529060010190602001808311610ce157829003601f168201915b5050506003840154600485015460058601546006870154600788015460088901546009909901549798949793965091945060ff169290918a565b604080516060808201835260008083526020808401829052838501829052868252600481528482206001600160a01b038716835290528390208351918201909352825491929091829060ff166001811115610d9557610d95611202565b6001811115610da657610da6611202565b81526001820154602082015260029091015460ff16151560409091015290505b92915050565b600060058383604051610de0929190611762565b908152602001604051809103902054905092915050565b6000606080600080600080600080600080600360008d81526020019081526020016000209050806000015481600101826002018360030154846004015485600501548660060160009054906101000a900460ff166003811115610e5c57610e5c611202565b876007015488600801548960090154888054610e7790611450565b80601f0160208091040260200160405190810160405280929190818152602001828054610ea390611450565b8015610ef05780601f10610ec557610100808354040283529160200191610ef0565b820191906000526020600020905b815481529060010190602001808311610ed357829003601f168201915b50505050509850878054610f0390611450565b80601f0160208091040260200160405190810160405280929190818152602001828054610f2f90611450565b8015610f7c5780601f10610f5157610100808354040283529160200191610f7c565b820191906000526020600020905b815481529060010190602001808311610f5f57829003601f168201915b505050505097509a509a509a509a509a509a509a509a509a509a50509193959799509193959799565b60008060408385031215610fb857600080fd5b82359150602083013560028110610fce57600080fd5b809150509250929050565b634e487b7160e01b600052604160045260246000fd5b600082601f83011261100057600080fd5b813567ffffffffffffffff8082111561101b5761101b610fd9565b604051601f8301601f19908116603f0116810190828211818310171561104357611043610fd9565b8160405283815286602085880101111561105c57600080fd5b836020870160208301376000602085830101528094505050505092915050565b60006020828403121561108e57600080fd5b813567ffffffffffffffff8111156110a557600080fd5b6110b184828501610fef565b949350505050565b6000602082840312156110cb57600080fd5b5035919050565b80356001600160a01b03811681146110e957600080fd5b919050565b60006020828403121561110057600080fd5b6105a9826110d2565b6000806040838503121561111c57600080fd5b8235915060208301358015158114610fce57600080fd5b600080600080600060a0868803121561114b57600080fd5b853567ffffffffffffffff8082111561116357600080fd5b61116f89838a01610fef565b9650602088013591508082111561118557600080fd5b5061119288828901610fef565b959895975050505060408401359360608101359360809091013592509050565b60005b838110156111cd5781810151838201526020016111b5565b50506000910152565b600081518084526111ee8160208601602086016111b2565b601f01601f19169290920160200192915050565b634e487b7160e01b600052602160045260246000fd5b6004811061122857611228611202565b9052565b60006101408c83528060208401526112468184018d6111d6565b9050828103604084015261125a818c6111d6565b9150508860608301528760808301528660a083015261127c60c0830187611218565b8460e083015283610100830152826101208301529b9a5050505050505050505050565b600080604083850312156112b257600080fd5b823591506112c2602084016110d2565b90509250929050565b6002811061122857611228611202565b60006060820190506112ee8284516112cb565b6020830151602083015260408301511515604083015292915050565b6000806020838503121561131d57600080fd5b823567ffffffffffffffff8082111561133557600080fd5b818501915085601f83011261134957600080fd5b81358181111561135857600080fd5b86602082850101111561136a57600080fd5b60209290920196919550909350505050565b60006101408c83528060208401526113968184018d6111d6565b905082810360408401526113aa818c6111d6565b606084019a909a525050608081019690965260a086019490945260ff9290921660c085015260e0840152610100830152610120909101529392505050565b606081016113f682866112cb565b8360208301528215156040830152949350505050565b634e487b7160e01b600052601160045260246000fd5b80820180821115610dc657610dc661140c565b6040810161144382856112cb565b8260208301529392505050565b600181811c9082168061146457607f821691505b60208210810361148457634e487b7160e01b600052602260045260246000fd5b50919050565b600080835461149881611450565b600182811680156114b057600181146114c5576114f4565b60ff19841687528215158302870194506114f4565b8760005260208060002060005b858110156114eb5781548a8201529084019082016114d2565b50505082870194505b50929695505050505050565b60808152600080865461151281611450565b80608086015260a0600180841660008114611534576001811461155057611582565b60ff19851660a089015260a084151560051b8901019550611582565b8b60005260208060002060005b868110156115785781548b820187015290840190820161155d565b8a0160a001975050505b5050505050809150506115986020830186611218565b60408201939093526060015292915050565b8082028115828204841417610dc657610dc661140c565b6000826115de57634e487b7160e01b600052601260045260246000fd5b500490565b600082516115f58184602087016111b2565b9190910192915050565b6000600182016116115761161161140c565b5060010190565b601f821115611664576000816000526020600020601f850160051c810160208610156116415750805b601f850160051c820191505b818110156116605782815560010161164d565b5050505b505050565b815167ffffffffffffffff81111561168357611683610fd9565b611697816116918454611450565b84611618565b602080601f8311600181146116cc57600084156116b45750858301515b600019600386901b1c1916600185901b178555611660565b600085815260208120601f198616915b828110156116fb578886015182559484019460019091019084016116dc565b50858210156117195787850151600019600388901b60f8161c191681555b5050505050600190811b01905550565b60808152600061173c60808301876111d6565b828103602084015261174e81876111d6565b604084019590955250506060015292915050565b818382376000910190815291905056fea26469706673582212201dbb9618830a80013eeedb3e02a6c792b4fb79f69067b8996b6870629eba348764736f6c63430008180033",
  "linkReferences": {},
  "deployedLinkReferences": {}
}