{
  "_format": "hh-sol-artifact-1",
  "contractName": "ReactivityHook",
  "sourceName": "contracts/ReactivityHook.sol",
  "abi": [
    {
      "inputs": [
        {
          "internalType": "address",
          "name": "predictionMarket_",
          "type": "address"
        }
      ],
      "stateMutability": "nonpayable",
      "type": "constructor"
    },
    {
      "inputs": [],
      "name": "InsufficientBalance",
      "type": "error"
    },
    {
      "inputs": [],
      "name": "NotOwner",
      "type": "error"
    },
    {
      "inputs": [],
      "name": "NotYourSmartBet",
      "type": "error"
    },
    {
      "inputs": [],
      "name": "SmartBetNotFound",
      "type": "error"
    },
    {
      "inputs": [],
      "name": "ZeroAmount",
      "type": "error"
    },
    {
      "anonymous": false,
      "inputs": [
        {
          "indexed": true,
          "internalType": "address",
          "name": "user",
          "type": "address"
        },
        {
          "indexed": false,
          "internalType": "uint256",
          "name": "amount",
          "type": "uint256"
        }
      ],
      "name": "Funded",
      "type": "event"
    },
    {
      "anonymous": false,
      "inputs": [
        {
          "indexed": true,
          "internalType": "uint256",
          "name": "marketId",
          "type": "uint256"
        },
        {
          "indexed": false,
          "internalType": "string",
          "name": "asset",
          "type": "string"
        },
        {
          "indexed": false,
          "internalType": "uint256",
          "name": "targetPrice",
          "type": "uint256"
        }
      ],
      "name": "MarketAutoCreated",
      "type": "event"
    },
    {
      "anonymous": false,
      "inputs": [
        {
          "indexed": true,
          "internalType": "uint256",
          "name": "marketId",
          "type": "uint256"
        },
        {
          "indexed": false,
          "internalType": "string",
          "name": "asset",
          "type": "string"
        },
        {
          "indexed": false,
          "internalType": "bool",
          "name": "hitTarget",
          "type": "bool"
        }
      ],
      "name": "MarketAutoResolved",
      "type": "event"
    },
    {
      "anonymous": false,
      "inputs": [
        {
          "indexed": true,
          "internalType": "uint256",
          "name": "id",
          "type": "uint256"
        },
        {
          "indexed": true,
          "internalType": "address",
          "name": "user",
          "type": "address"
        }
      ],
      "name": "SmartBetCancelled",
      "type": "event"
    },
    {
      "anonymous": false,
      "inputs": [
        {
          "indexed": true,
          "internalType": "uint256",
          "name": "id",
          "type": "uint256"
        },
        {
          "indexed": true,
          "internalType": "address",
          "name": "user",
          "type": "address"
        },
        {
          "indexed": false,
          "internalType": "uint256",
          "name": "marketId",
          "type": "uint256"
        }
      ],
      "name": "SmartBetFired",
      "type": "event"
    },
    {
      "anonymous": false,
      "inputs": [
        {
          "indexed": true,
          "internalType": "uint256",
          "name": "id",
          "type": "uint256"
        },
        {
          "indexed": true,
          "internalType": "address",
          "name": "user",
          "type": "address"
        },
        {
          "indexed": false,
          "internalType": "string",
          "name": "asset",
          "type": "string"
        },
        {
          "indexed": false,
          "internalType": "uint256",
          "name": "triggerPrice",
          "type": "uint256"
        },
        {
          "indexed": false,
          "internalType": "uint8",
          "name": "side",
          "type": "uint8"
        },
        {
          "indexed": false,
          "internalType": "uint256",
          "name": "amount",
          "type": "uint256"
        }
      ],
      "name": "SmartBetRegistered",
      "type": "event"
    },
    {
      "anonymous": false,
      "inputs": [
        {
          "indexed": true,
          "internalType": "address",
          "name": "user",
          "type": "address"
        },
        {
          "indexed": false,
          "internalType": "uint256",
          "name": "amount",
          "type": "uint256"
        }
      ],
      "name": "Withdrawn",
      "type": "event"
    },
    {
      "inputs": [],
      "name": "BTC_MILESTONE_STEP",
      "outputs": [
        {
          "internalType": "uint256",
          "name": "",
          "type": "uint256"
        }
      ],
      "stateMutability": "view",
      "type": "function"
    },
    {
      "inputs": [],
      "name": "ETH_MILESTONE_STEP",
      "outputs": [
        {
          "internalType": "uint256",
          "name": "",
          "type": "uint256"
        }
      ],
      "stateMutability": "view",
      "type": "function"
    },
    {
      "inputs": [],
      "name": "MARKET_DURATION",
      "outputs": [
        {
          "internalType": "uint256",
          "name": "",
          "type": "uint256"
        }
      ],
      "stateMutability": "view",
      "type": "function"
    },
    {
      "inputs": [],
      "name": "PRICE_UPDATED_SIG",
      "outputs": [
        {
          "internalType": "bytes32",
          "name": "",
          "type": "bytes32"
        }
      ],
      "stateMutability": "view",
      "type": "function"
    },
    {
      "inputs": [],
      "name": "SOMI_MILESTONE_STEP",
      "outputs": [
        {
          "internalType": "uint256",
          "name": "",
          "type": "uint256"
        }
      ],
      "stateMutability": "view",
      "type": "function"
    },
    {
      "inputs": [],
      "name": "btcFeed",
      "outputs": [
        {
          "internalType": "address",
          "name": "",
          "type": "address"
        }
      ],
      "stateMutability": "view",
      "type": "function"
    },
    {
      "inputs": [
        {
          "internalType": "uint256",
          "name": "id",
          "type": "uint256"
        }
      ],
      "name": "cancelSmartBet",
      "outputs": [],
      "stateMutability": "nonpayable",
      "type": "function"
    },
    {
      "inputs": [],
      "name": "ethFeed",
      "outputs": [
        {
          "internalType": "address",
          "name": "",
          "type": "address"
        }
      ],
      "stateMutability": "view",
      "type": "function"
    },
    {
      "inputs": [],
      "name": "fund",
      "outputs": [],
      "stateMutability": "payable",
      "type": "function"
    },
    {
      "inputs": [
        {
          "internalType": "uint256",
          "name": "id",
          "type": "uint256"
        }
      ],
      "name": "getSmartBet",
      "outputs": [
        {
          "components": [
            {
              "internalType": "address",
              "name": "user",
              "type": "address"
            },
            {
              "internalType": "string",
              "name": "asset",
              "type": "string"
            },
            {
              "internalType": "bool",
              "name": "isAbove",
              "type": "bool"
            },
            {
              "internalType": "uint256",
              "name": "triggerPrice",
              "type": "uint256"
            },
            {
              "internalType": "uint8",
              "name": "side",
              "type": "uint8"
            },
            {
              "internalType": "uint256",
              "name": "betAmount",
              "type": "uint256"
            },
            {
              "internalType": "bool",
              "name": "active",
              "type": "bool"
            }
          ],
          "internalType": "struct ReactivityHook.SmartBet",
          "name": "",
          "type": "tuple"
        }
      ],
      "stateMutability": "view",
      "type": "function"
    },
    {
      "inputs": [
        {
          "internalType": "address",
          "name": "user",
          "type": "address"
        }
      ],
      "name": "getUserSmartBets",
      "outputs": [
        {
          "internalType": "uint256[]",
          "name": "",
          "type": "uint256[]"
        }
      ],
      "stateMutability": "view",
      "type": "function"
    },
    {
      "inputs": [
        {
          "internalType": "string",
          "name": "",
          "type": "string"
        }
      ],
      "name": "lastMilestone",
      "outputs": [
        {
          "internalType": "uint256",
          "name": "",
          "type": "uint256"
        }
      ],
      "stateMutability": "view",
      "type": "function"
    },
    {
      "inputs": [
        {
          "internalType": "string",
          "name": "asset",
          "type": "string"
        }
      ],
      "name": "manualTrigger",
      "outputs": [],
      "stateMutability": "nonpayable",
      "type": "function"
    },
    {
      "inputs": [],
      "name": "nextSmartBetId",
      "outputs": [
        {
          "internalType": "uint256",
          "name": "",
          "type": "uint256"
        }
      ],
      "stateMutability": "view",
      "type": "function"
    },
    {
      "inputs": [
        {
          "internalType": "address",
          "name": "emitter",
          "type": "address"
        },
        {
          "internalType": "bytes32[]",
          "name": "eventTopics",
          "type": "bytes32[]"
        },
        {
          "internalType": "bytes",
          "name": "data",
          "type": "bytes"
        }
      ],
      "name": "onEvent",
      "outputs": [],
      "stateMutability": "nonpayable",
      "type": "function"
    },
    {
      "inputs": [],
      "name": "owner",
      "outputs": [
        {
          "internalType": "address",
          "name": "",
          "type": "address"
        }
      ],
      "stateMutability": "view",
      "type": "function"
    },
    {
      "inputs": [],
      "name": "predictionMarket",
      "outputs": [
        {
          "internalType": "contract IPredictionMarket",
          "name": "",
          "type": "address"
        }
      ],
      "stateMutability": "view",
      "type": "function"
    },
    {
      "inputs": [
        {
          "internalType": "string",
          "name": "asset_",
          "type": "string"
        },
        {
          "internalType": "bool",
          "name": "isAbove_",
          "type": "bool"
        },
        {
          "internalType": "uint256",
          "name": "triggerPrice_",
          "type": "uint256"
        },
        {
          "internalType": "uint8",
          "name": "side_",
          "type": "uint8"
        },
        {
          "internalType": "uint256",
          "name": "betAmount_",
          "type": "uint256"
        }
      ],
      "name": "registerSmartBet",
      "outputs": [
        {
          "internalType": "uint256",
          "name": "id",
          "type": "uint256"
        }
      ],
      "stateMutability": "nonpayable",
      "type": "function"
    },
    {
      "inputs": [
        {
          "internalType": "address",
          "name": "eth_",
          "type": "address"
        },
        {
          "internalType": "address",
          "name": "btc_",
          "type": "address"
        },
        {
          "internalType": "address",
          "name": "somi_",
          "type": "address"
        }
      ],
      "name": "setFeeds",
      "outputs": [],
      "stateMutability": "nonpayable",
      "type": "function"
    },
    {
      "inputs": [
        {
          "internalType": "uint256",
          "name": "",
          "type": "uint256"
        }
      ],
      "name": "smartBets",
      "outputs": [
        {
          "internalType": "address",
          "name": "user",
          "type": "address"
        },
        {
          "internalType": "string",
          "name": "asset",
          "type": "string"
        },
        {
          "internalType": "bool",
          "name": "isAbove",
          "type": "bool"
        },
        {
          "internalType": "uint256",
          "name": "triggerPrice",
          "type": "uint256"
        },
        {
          "internalType": "uint8",
          "name": "side",
          "type": "uint8"
        },
        {
          "internalType": "uint256",
          "name": "betAmount",
          "type": "uint256"
        },
        {
          "internalType": "bool",
          "name": "active",
          "type": "bool"
        }
      ],
      "stateMutability": "view",
      "type": "function"
    },
    {
      "inputs": [],
      "name": "somiFeed",
      "outputs": [
        {
          "internalType": "address",
          "name": "",
          "type": "address"
        }
      ],
      "stateMutability": "view",
      "type": "function"
    },
    {
      "inputs": [
        {
          "internalType": "address",
          "name": "",
          "type": "address"
        }
      ],
      "name": "userBalance",
      "outputs": [
        {
          "internalType": "uint256",
          "name": "",
          "type": "uint256"
        }
      ],
      "stateMutability": "view",
      "type": "function"
    },
    {
      "inputs": [
        {
          "internalType": "address",
          "name": "",
          "type": "address"
        },
        {
          "internalType": "uint256",
          "name": "",
          "type": "uint256"
        }
      ],
      "name": "userSmartBets",
      "outputs": [
        {
          "internalType": "uint256",
          "name": "",
          "type": "uint256"
        }
      ],
      "stateMutability": "view",
      "type": "function"
    },
    {
      "inputs": [
        {
          "internalType": "uint256",
          "name": "amount",
          "type": "uint256"
        }
      ],
      "name": "withdraw",
      "outputs": [],
      "stateMutability": "nonpayable",
      "type": "function"
    },
    {
      "stateMutability": "payable",
      "type": "receive"
    }
  ],
  "bytecode": "0x608060405234801561001057600080fd5b50604051620022193803806200221983398101604081905261003191610067565b60008054336001600160a01b031991821617909155600180549091166001600160a01b0392909216919091178155600355610097565b60006020828403121561007957600080fd5b81516001600160a01b038116811461009057600080fd5b9392505050565b61217280620000a76000396000f3fe60806040526004361061014f5760003560e01c8063a6b491cc116100b6578063c23d2a4a1161006f578063c23d2a4a146103c3578063d25a7875146103e3578063d262fd7d14610417578063db09061c1461042d578063def114b614610465578063e8b514c31461048557600080fd5b8063a6b491cc1461030e578063b21c8b6c14610325578063b60d428814610345578063beeb96fa1461034d578063bf7324201461037a578063c0c1e0301461039057600080fd5b806353edf33d1161010857806353edf33d146102295780635e19d05c146102495780636fbdd3ee146102815780638da5cb5b146102ae578063938c6c84146102ce578063a0a66276146102ee57600080fd5b80630103c92b1461015b5780630548db121461019b5780632e19b5f5146101bd5780632e1a7d4d146101d357806330dc389c146101f35780633291472a1461020957600080fd5b3661015657005b600080fd5b34801561016757600080fd5b50610188610176366004611714565b60066020526000908152604090205481565b6040519081526020015b60405180910390f35b3480156101a757600080fd5b506101bb6101b6366004611736565b6104a5565b005b3480156101c957600080fd5b506101886101f481565b3480156101df57600080fd5b506101bb6101ee366004611779565b61050f565b3480156101ff57600080fd5b5061018861025881565b34801561021557600080fd5b50610188610224366004611869565b61064c565b34801561023557600080fd5b506101bb61024436600461192b565b6107fe565b34801561025557600080fd5b50600754610269906001600160a01b031681565b6040516001600160a01b039091168152602001610192565b34801561028d57600080fd5b506102a161029c366004611714565b610812565b60405161019291906119dd565b3480156102ba57600080fd5b50600054610269906001600160a01b031681565b3480156102da57600080fd5b506101886102e9366004611a21565b61087e565b3480156102fa57600080fd5b506101bb610309366004611779565b6108af565b34801561031a57600080fd5b50610188620186a081565b34801561033157600080fd5b506101bb610340366004611a4b565b610949565b6101bb610b8c565b34801561035957600080fd5b5061036d610368366004611779565b610c08565b6040516101929190611add565b34801561038657600080fd5b5061018860035481565b34801561039c57600080fd5b506103b06103ab366004611779565b610d47565b6040516101929796959493929190611b51565b3480156103cf57600080fd5b50600854610269906001600160a01b031681565b3480156103ef57600080fd5b506101887f6e838f2a03741f5f2aff5480963b672fb0dd8430a4dc75db9b67ce009733c9fe81565b34801561042357600080fd5b5061018861271081565b34801561043957600080fd5b50610188610448366004611ba4565b805160208183018101805160028252928201919093012091525481565b34801561047157600080fd5b50600154610269906001600160a01b031681565b34801561049157600080fd5b50600954610269906001600160a01b031681565b6000546001600160a01b031633146104d0576040516330cd747160e01b815260040160405180910390fd5b600780546001600160a01b039485166001600160a01b031991821617909155600880549385169382169390931790925560098054919093169116179055565b8060000361053057604051631f2a200560e01b815260040160405180910390fd5b3360009081526006602052604090205481111561056057604051631e9acf1760e31b815260040160405180910390fd5b336000908152600660205260408120805483929061057f908490611bf7565b9091555050604051600090339083908381818185875af1925050503d80600081146105c6576040519150601f19603f3d011682016040523d82523d6000602084013e6105cb565b606091505b50509050806106135760405162461bcd60e51b815260206004820152600f60248201526e151c985b9cd9995c8819985a5b1959608a1b60448201526064015b60405180910390fd5b60405182815233907f7084f5476618d8e60b11ef0d7d3f06914655adb8793e28ff7f018d4c76d505d59060200160405180910390a25050565b60008160000361066f57604051631f2a200560e01b815260040160405180910390fd5b3360009081526006602052604090205482111561069f57604051631e9acf1760e31b815260040160405180910390fd5b600380549060006106af83611c0a565b909155506040805160e08101825233815260208082018a8152891515838501526060830189905260ff8816608084015260a08301879052600160c084018190526000868152600490935293909120825181546001600160a01b0319166001600160a01b0390911617815590519394509092909182019061072f9082611ca5565b5060408281015160028301805491151560ff1992831617905560608401516003840155608084015160048401805460ff9290921691831691909117905560a084015160058085019190915560c090940151600690930180549315159390911692909217909155336000818152602093845282812080546001810182559082529390209092018390555182907fd90173bfc16df5c14b7d2d076fe28cd53889ac5fee6feca3477e8029bb58ea86906107ed908a90899089908990611d65565b60405180910390a395945050505050565b61080b8585858585610e1e565b5050505050565b6001600160a01b03811660009081526005602090815260409182902080548351818402810184019094528084526060939283018282801561087257602002820191906000526020600020905b81548152602001906001019080831161085e575b50505050509050919050565b6005602052816000526040600020818154811061089a57600080fd5b90600052602060002001600091509150505481565b6000818152600460205260409020600681015460ff166108e257604051637779b07160e01b815260040160405180910390fd5b80546001600160a01b0316331461090c57604051632afcf13760e11b815260040160405180910390fd5b60068101805460ff19169055604051339083907fab3799442877990f8c9804602b351375674ab3839030c9cd416cc1844d86791290600090a35050565b6000546001600160a01b03163314610974576040516330cd747160e01b815260040160405180910390fd5b60007faaaebeba3810b1e6b70781f14b2d72c1cb89c0b2b320c43bb67ff79f562f5ff483836040516109a7929190611d97565b6040518091039020036109c657506007546001600160a01b0316610a9e565b7fe98e2830be1a7e4156d656a7505e65d08c67660dc618072422e9c78053c261e983836040516109f7929190611d97565b604051809103902003610a1657506008546001600160a01b0316610a9e565b7f5f30304a5db4e9c0a1e1fd3e823f7f455e1b3a9a3be2b26770e47784751fbd308383604051610a47929190611d97565b604051809103902003610a6657506009546001600160a01b0316610a9e565b60405162461bcd60e51b815260206004820152600d60248201526c155b9adb9bdddb88185cdcd95d609a1b604482015260640161060a565b6000816001600160a01b03166398d5fdca6040518163ffffffff1660e01b81526004016040805180830381865afa158015610add573d6000803e3d6000fd5b505050506040513d601f19601f82011682018060405250810190610b019190611da7565b509050610b4584848080601f016020809104026020016040519081016040528093929190818152602001838380828437600092019190915250859250610ec9915050565b610b8684848080601f016020809104026020016040519081016040528093929190818152602001838380828437600092019190915250859250611136915050565b50505050565b34600003610bad57604051631f2a200560e01b815260040160405180910390fd5b3360009081526006602052604081208054349290610bcc908490611dcb565b909155505060405134815233907f5af8184bef8e4b45eb9f6ed7734d04da38ced226495548f46e0c8ff8d7d9a5249060200160405180910390a2565b6040805160e08101825260008082526060602083018190529282018190529181018290526080810182905260a0810182905260c0810191909152600082815260046020908152604091829020825160e0810190935280546001600160a01b031683526001810180549192840191610c7e90611c23565b80601f0160208091040260200160405190810160405280929190818152602001828054610caa90611c23565b8015610cf75780601f10610ccc57610100808354040283529160200191610cf7565b820191906000526020600020905b815481529060010190602001808311610cda57829003601f168201915b5050509183525050600282015460ff908116151560208301526003830154604083015260048301548116606083015260058301546080830152600690920154909116151560a09091015292915050565b600460205260009081526040902080546001820180546001600160a01b039092169291610d7390611c23565b80601f0160208091040260200160405190810160405280929190818152602001828054610d9f90611c23565b8015610dec5780601f10610dc157610100808354040283529160200191610dec565b820191906000526020600020905b815481529060010190602001808311610dcf57829003601f168201915b5050506002840154600385015460048601546005870154600690970154959660ff938416969295509083169350911687565b6002831061080b577f6e838f2a03741f5f2aff5480963b672fb0dd8430a4dc75db9b67ce009733c9fe84846000818110610e5a57610e5a611dde565b905060200201350361080b576000610e7482840184611df4565b50905080600003610e85575061080b565b6000610e9087611311565b90508051600003610ea257505061080b565b610eac8183610ec9565b610eb68183611136565b610ec081836113c8565b50505050505050565b60015460405163de7d891b60e01b81526000916001600160a01b03169063de7d891b90610efa908690600401611e16565b602060405180830381865afa158015610f17573d6000803e3d6000fd5b505050506040513d601f19601f82011682018060405250810190610f3b9190611e29565b905080600003610f4a57505050565b60015460405163eb44fdd360e01b815260048101839052600091829182916001600160a01b03169063eb44fdd390602401600060405180830381865afa158015610f98573d6000803e3d6000fd5b505050506040513d6000823e601f3d908101601f19168201604052610fc09190810190611e92565b505050965096505095505050508060ff16600014610fe057505050505050565b82851061108f5760018054604051632bdef22360e11b81526004810187905260248101929092526001600160a01b0316906357bde44690604401600060405180830381600087803b15801561103457600080fd5b505af1158015611048573d6000803e3d6000fd5b50505050837ff8ab697274631a41e4c654ce405a620a61a714bfacba265c6ddc2f1eda8f421387600160405161107f929190611f4c565b60405180910390a2505050505050565b81421061112e57600154604051632bdef22360e11b815260048101869052600060248201526001600160a01b03909116906357bde44690604401600060405180830381600087803b1580156110e357600080fd5b505af11580156110f7573d6000803e3d6000fd5b50505050837ff8ab697274631a41e4c654ce405a620a61a714bfacba265c6ddc2f1eda8f421387600060405161107f929190611f4c565b505050505050565b60015460405163de7d891b60e01b81526001600160a01b039091169063de7d891b90611166908590600401611e16565b602060405180830381865afa158015611183573d6000803e3d6000fd5b505050506040513d601f19601f820116820180604052508101906111a79190611e29565b156111b0575050565b60006111bb83611626565b9050806000036111ca57505050565b6000816111d78185611f70565b6111e19190611f92565b90506002846040516111f39190611fa9565b908152602001604051809103902054811161120e5750505050565b8060028560405161121f9190611fa9565b90815260405190819003602001902055600061123b8383611dcb565b9050600061124986836116cd565b600154604051639bd1d51360e01b81529192506000916001600160a01b0390911690639bd1d51390611289908a90869088908c9061025890600401611fc5565b6020604051808303816000875af11580156112a8573d6000803e3d6000fd5b505050506040513d601f19601f820116820180604052508101906112cc9190611e29565b9050807f59d922c62c8d9de413ead546958868814c5e1a3bcc20bf38b3743733e870fe3c8885604051611300929190612008565b60405180910390a250505050505050565b6007546060906001600160a01b039081169083160361134957505060408051808201909152600381526208aa8960eb1b602082015290565b6008546001600160a01b039081169083160361137e57505060408051808201909152600381526242544360e81b602082015290565b6009546001600160a01b03908116908316036113b4575050604080518082019091526004815263534f4d4960e01b602082015290565b505060408051602081019091526000815290565b60015b600354811015611621576000818152600460205260409020600681015460ff166113f55750611619565b8351602085012060405161140d90600184019061202a565b6040518091039020146114205750611619565b600281015460009060ff1661143c578160030154841115611445565b81600301548410155b905080611453575050611619565b600582015482546001600160a01b031660009081526006602052604090205410156114895750600601805460ff19169055611619565b60015460405163de7d891b60e01b81526000916001600160a01b03169063de7d891b906114ba908990600401611e16565b602060405180830381865afa1580156114d7573d6000803e3d6000fd5b505050506040513d601f19601f820116820180604052508101906114fb9190611e29565b90508060000361150d57505050611619565b600583015483546001600160a01b03166000908152600660205260408120805490919061153b908490611bf7565b909155505060068301805460ff1916905560018054600585015460048601546001600160a01b03909216926303edf91492859160ff90911690811115611583576115836120a0565b6040518463ffffffff1660e01b81526004016115a09291906120b6565b6000604051808303818588803b1580156115b957600080fd5b505af11580156115cd573d6000803e3d6000fd5b505085546040518581526001600160a01b0390911693508792507fd295e8294322651166a1ffe68de27eed09be1c33e70f11b6bb420cc2565b0b1c915060200160405180910390a35050505b6001016113cb565b505050565b805160208201206000907f55514145c7ef4e1948f87e0eb4d28d3e34763f4d4cdf3bc449800860a9d0a00c8101611661575061271092915050565b7fe98e2830be1a7e4156d656a7505e65d08c67660dc618072422e9c78053c261e981036116935750620186a092915050565b7f5f30304a5db4e9c0a1e1fd3e823f7f455e1b3a9a3be2b26770e47784751fbd3081036116c457506101f492915050565b50600092915050565b6060826040516020016116e091906120e8565b60405160208183030381529060405290505b92915050565b80356001600160a01b038116811461170f57600080fd5b919050565b60006020828403121561172657600080fd5b61172f826116f8565b9392505050565b60008060006060848603121561174b57600080fd5b611754846116f8565b9250611762602085016116f8565b9150611770604085016116f8565b90509250925092565b60006020828403121561178b57600080fd5b5035919050565b634e487b7160e01b600052604160045260246000fd5b604051601f8201601f1916810167ffffffffffffffff811182821017156117d1576117d1611792565b604052919050565b600067ffffffffffffffff8211156117f3576117f3611792565b50601f01601f191660200190565b600082601f83011261181257600080fd5b8135611825611820826117d9565b6117a8565b81815284602083860101111561183a57600080fd5b816020850160208301376000918101602001919091529392505050565b60ff8116811461186657600080fd5b50565b600080600080600060a0868803121561188157600080fd5b853567ffffffffffffffff81111561189857600080fd5b6118a488828901611801565b955050602086013580151581146118ba57600080fd5b93506040860135925060608601356118d181611857565b949793965091946080013592915050565b60008083601f8401126118f457600080fd5b50813567ffffffffffffffff81111561190c57600080fd5b60208301915083602082850101111561192457600080fd5b9250929050565b60008060008060006060868803121561194357600080fd5b61194c866116f8565b9450602086013567ffffffffffffffff8082111561196957600080fd5b818801915088601f83011261197d57600080fd5b81358181111561198c57600080fd5b8960208260051b85010111156119a157600080fd5b6020830196508095505060408801359150808211156119bf57600080fd5b506119cc888289016118e2565b969995985093965092949392505050565b6020808252825182820181905260009190848201906040850190845b81811015611a15578351835292840192918401916001016119f9565b50909695505050505050565b60008060408385031215611a3457600080fd5b611a3d836116f8565b946020939093013593505050565b60008060208385031215611a5e57600080fd5b823567ffffffffffffffff811115611a7557600080fd5b611a81858286016118e2565b90969095509350505050565b60005b83811015611aa8578181015183820152602001611a90565b50506000910152565b60008151808452611ac9816020860160208601611a8d565b601f01601f19169290920160200192915050565b602080825282516001600160a01b03168282015282015160e06040830152600090611b0c610100840182611ab1565b90506040840151151560608401526060840151608084015260ff60808501511660a084015260a084015160c084015260c0840151151560e08401528091505092915050565b6001600160a01b038816815260e060208201819052600090611b7590830189611ab1565b961515604083015250606081019490945260ff92909216608084015260a0830152151560c09091015292915050565b600060208284031215611bb657600080fd5b813567ffffffffffffffff811115611bcd57600080fd5b611bd984828501611801565b949350505050565b634e487b7160e01b600052601160045260246000fd5b818103818111156116f2576116f2611be1565b600060018201611c1c57611c1c611be1565b5060010190565b600181811c90821680611c3757607f821691505b602082108103611c5757634e487b7160e01b600052602260045260246000fd5b50919050565b601f821115611621576000816000526020600020601f850160051c81016020861015611c865750805b601f850160051c820191505b8181101561112e57828155600101611c92565b815167ffffffffffffffff811115611cbf57611cbf611792565b611cd381611ccd8454611c23565b84611c5d565b602080601f831160018114611d085760008415611cf05750858301515b600019600386901b1c1916600185901b17855561112e565b600085815260208120601f198616915b82811015611d3757888601518255948401946001909101908401611d18565b5085821015611d555787850151600019600388901b60f8161c191681555b5050505050600190811b01905550565b608081526000611d786080830187611ab1565b60208301959095525060ff929092166040830152606090910152919050565b8183823760009101908152919050565b60008060408385031215611dba57600080fd5b505080516020909101519092909150565b808201808211156116f2576116f2611be1565b634e487b7160e01b600052603260045260246000fd5b60008060408385031215611e0757600080fd5b50508035926020909101359150565b60208152600061172f6020830184611ab1565b600060208284031215611e3b57600080fd5b5051919050565b600082601f830112611e5357600080fd5b8151611e61611820826117d9565b818152846020838601011115611e7657600080fd5b611bd9826020830160208701611a8d565b805161170f81611857565b6000806000806000806000806000806101408b8d031215611eb257600080fd5b8a51995060208b015167ffffffffffffffff80821115611ed157600080fd5b611edd8e838f01611e42565b9a5060408d0151915080821115611ef357600080fd5b50611f008d828e01611e42565b98505060608b0151965060808b0151955060a08b01519450611f2460c08c01611e87565b935060e08b015192506101008b015191506101208b015190509295989b9194979a5092959850565b604081526000611f5f6040830185611ab1565b905082151560208301529392505050565b600082611f8d57634e487b7160e01b600052601260045260246000fd5b500490565b80820281158282048414176116f2576116f2611be1565b60008251611fbb818460208701611a8d565b9190910192915050565b60a081526000611fd860a0830188611ab1565b8281036020840152611fea8188611ab1565b60408401969096525050606081019290925260809091015292915050565b60408152600061201b6040830185611ab1565b90508260208301529392505050565b600080835461203881611c23565b60018281168015612050576001811461206557612094565b60ff1984168752821515830287019450612094565b8760005260208060002060005b8581101561208b5781548a820152908401908201612072565b50505082870194505b50929695505050505050565b634e487b7160e01b600052602160045260246000fd5b82815260408101600283106120db57634e487b7160e01b600052602160045260246000fd5b8260208301529392505050565b6402bb4b636160dd1b815260008251612108816005850160208701611a8d565b7f206869742074617267657420707269636520696e203130206d696e757465733f600593909101928301525060250191905056fea2646970667358221220f223bd7fba24dbaf17f314d02918680cd33e1fdbefb7348fbd5caf1a510ec29764736f6c63430008180033",
  "linkReferences": {},
  "deployedLinkReferences": {}
}