{
  "_format": "hh-sol-artifact-1",
  "contractName": "ReactivityHook",
  "sourceName": "contracts/ReactivityHook.sol",
  "abi": [
    {
      "inputs": [
        {
          "internalType": "address",
          "name": "predictionMarket_",
          "type": "address"
        }
      ],
      "stateMutability": "nonpayable",
      "type": "constructor"
    },
    {
      "inputs": [],
      "name": "InsufficientBalance",
      "type": "error"
    },
    {
      "inputs": [],
      "name": "NotOwner",
      "type": "error"
    },
    {
      "inputs": [],
      "name": "NotYourSmartBet",
      "type": "error"
    },
    {
      "inputs": [],
      "name": "SmartBetNotFound",
      "type": "error"
    },
    {
      "inputs": [],
      "name": "ZeroAmount",
      "type": "error"
    },
    {
      "anonymous": false,
      "inputs": [
        {
          "indexed": true,
          "internalType": "address",
          "name": "user",
          "type": "address"
        },
        {
          "indexed": false,
          "internalType": "uint256",
          "name": "amount",
          "type": "uint256"
        }
      ],
      "name": "Funded",
      "type": "event"
    },
    {
      "anonymous": false,
      "inputs": [
        {
          "indexed": true,
          "internalType": "uint256",
          "name": "marketId",
          "type": "uint256"
        },
        {
          "indexed": false,
          "internalType": "string",
          "name": "asset",
          "type": "string"
        },
        {
          "indexed": false,
          "internalType": "uint256",
          "name": "targetPrice",
          "type": "uint256"
        }
      ],
      "name": "MarketAutoCreated",
      "type": "event"
    },
    {
      "anonymous": false,
      "inputs": [
        {
          "indexed": true,
          "internalType": "uint256",
          "name": "marketId",
          "type": "uint256"
        },
        {
          "indexed": false,
          "internalType": "string",
          "name": "asset",
          "type": "string"
        },
        {
          "indexed": false,
          "internalType": "bool",
          "name": "hitTarget",
          "type": "bool"
        }
      ],
      "name": "MarketAutoResolved",
      "type": "event"
    },
    {
      "anonymous": false,
      "inputs": [
        {
          "indexed": true,
          "internalType": "uint256",
          "name": "id",
          "type": "uint256"
        },
        {
          "indexed": true,
          "internalType": "address",
          "name": "user",
          "type": "address"
        }
      ],
      "name": "SmartBetCancelled",
      "type": "event"
    },
    {
      "anonymous": false,
      "inputs": [
        {
          "indexed": true,
          "internalType": "uint256",
          "name": "id",
          "type": "uint256"
        },
        {
          "indexed": true,
          "internalType": "address",
          "name": "user",
          "type": "address"
        },
        {
          "indexed": false,
          "internalType": "uint256",
          "name": "marketId",
          "type": "uint256"
        }
      ],
      "name": "SmartBetFired",
      "type": "event"
    },
    {
      "anonymous": false,
      "inputs": [
        {
          "indexed": true,
          "internalType": "uint256",
          "name": "id",
          "type": "uint256"
        },
        {
          "indexed": true,
          "internalType": "address",
          "name": "user",
          "type": "address"
        },
        {
          "indexed": false,
          "internalType": "string",
          "name": "asset",
          "type": "string"
        },
        {
          "indexed": false,
          "internalType": "uint256",
          "name": "triggerPrice",
          "type": "uint256"
        },
        {
          "indexed": false,
          "internalType": "uint8",
          "name": "side",
          "type": "uint8"
        },
        {
          "indexed": false,
          "internalType": "uint256",
          "name": "amount",
          "type": "uint256"
        }
      ],
      "name": "SmartBetRegistered",
      "type": "event"
    },
    {
      "anonymous": false,
      "inputs": [
        {
          "indexed": true,
          "internalType": "address",
          "name": "user",
          "type": "address"
        },
        {
          "indexed": false,
          "internalType": "uint256",
          "name": "amount",
          "type": "uint256"
        }
      ],
      "name": "Withdrawn",
      "type": "event"
    },
    {
      "inputs": [],
      "name": "BTC_MILESTONE_STEP",
      "outputs": [
        {
          "internalType": "uint256",
          "name": "",
          "type": "uint256"
        }
      ],
      "stateMutability": "view",
      "type": "function"
    },
    {
      "inputs": [],
      "name": "ETH_MILESTONE_STEP",
      "outputs": [
        {
          "internalType": "uint256",
          "name": "",
          "type": "uint256"
        }
      ],
      "stateMutability": "view",
      "type": "function"
    },
    {
      "inputs": [],
      "name": "MARKET_DURATION",
      "outputs": [
        {
          "internalType": "uint256",
          "name": "",
          "type": "uint256"
        }
      ],
      "stateMutability": "view",
      "type": "function"
    },
    {
      "inputs": [],
      "name": "PRICE_UPDATED_SIG",
      "outputs": [
        {
          "internalType": "bytes32",
          "name": "",
          "type": "bytes32"
        }
      ],
      "stateMutability": "view",
      "type": "function"
    },
    {
      "inputs": [],
      "name": "SOMI_MILESTONE_STEP",
      "outputs": [
        {
          "internalType": "uint256",
          "name": "",
          "type": "uint256"
        }
      ],
      "stateMutability": "view",
      "type": "function"
    },
    {
      "inputs": [],
      "name": "btcFeed",
      "outputs": [
        {
          "internalType": "address",
          "name": "",
          "type": "address"
        }
      ],
      "stateMutability": "view",
      "type": "function"
    },
    {
      "inputs": [
        {
          "internalType": "uint256",
          "name": "id",
          "type": "uint256"
        }
      ],
      "name": "cancelSmartBet",
      "outputs": [],
      "stateMutability": "nonpayable",
      "type": "function"
    },
    {
      "inputs": [],
      "name": "ethFeed",
      "outputs": [
        {
          "internalType": "address",
          "name": "",
          "type": "address"
        }
      ],
      "stateMutability": "view",
      "type": "function"
    },
    {
      "inputs": [],
      "name": "fund",
      "outputs": [],
      "stateMutability": "payable",
      "type": "function"
    },
    {
      "inputs": [
        {
          "internalType": "uint256",
          "name": "id",
          "type": "uint256"
        }
      ],
      "name": "getSmartBet",
      "outputs": [
        {
          "components": [
            {
              "internalType": "address",
              "name": "user",
              "type": "address"
            },
            {
              "internalType": "string",
              "name": "asset",
              "type": "string"
            },
            {
              "internalType": "bool",
              "name": "isAbove",
              "type": "bool"
            },
            {
              "internalType": "uint256",
              "name": "triggerPrice",
              "type": "uint256"
            },
            {
              "internalType": "uint8",
              "name": "side",
              "type": "uint8"
            },
            {
              "internalType": "uint256",
              "name": "betAmount",
              "type": "uint256"
            },
            {
              "internalType": "bool",
              "name": "active",
              "type": "bool"
            }
          ],
          "internalType": "struct ReactivityHook.SmartBet",
          "name": "",
          "type": "tuple"
        }
      ],
      "stateMutability": "view",
      "type": "function"
    },
    {
      "inputs": [
        {
          "internalType": "address",
          "name": "user",
          "type": "address"
        }
      ],
      "name": "getUserSmartBets",
      "outputs": [
        {
          "internalType": "uint256[]",
          "name": "",
          "type": "uint256[]"
        }
      ],
      "stateMutability": "view",
      "type": "function"
    },
    {
      "inputs": [
        {
          "internalType": "string",
          "name": "",
          "type": "string"
        }
      ],
      "name": "lastMilestone",
      "outputs": [
        {
          "internalType": "uint256",
          "name": "",
          "type": "uint256"
        }
      ],
      "stateMutability": "view",
      "type": "function"
    },
    {
      "inputs": [],
      "name": "nextSmartBetId",
      "outputs": [
        {
          "internalType": "uint256",
          "name": "",
          "type": "uint256"
        }
      ],
      "stateMutability": "view",
      "type": "function"
    },
    {
      "inputs": [
        {
          "internalType": "address",
          "name": "emitter",
          "type": "address"
        },
        {
          "internalType": "bytes32[]",
          "name": "eventTopics",
          "type": "bytes32[]"
        },
        {
          "internalType": "bytes",
          "name": "data",
          "type": "bytes"
        }
      ],
      "name": "onEvent",
      "outputs": [],
      "stateMutability": "nonpayable",
      "type": "function"
    },
    {
      "inputs": [],
      "name": "owner",
      "outputs": [
        {
          "internalType": "address",
          "name": "",
          "type": "address"
        }
      ],
      "stateMutability": "view",
      "type": "function"
    },
    {
      "inputs": [],
      "name": "predictionMarket",
      "outputs": [
        {
          "internalType": "contract IPredictionMarket",
          "name": "",
          "type": "address"
        }
      ],
      "stateMutability": "view",
      "type": "function"
    },
    {
      "inputs": [
        {
          "internalType": "string",
          "name": "asset_",
          "type": "string"
        },
        {
          "internalType": "bool",
          "name": "isAbove_",
          "type": "bool"
        },
        {
          "internalType": "uint256",
          "name": "triggerPrice_",
          "type": "uint256"
        },
        {
          "internalType": "uint8",
          "name": "side_",
          "type": "uint8"
        },
        {
          "internalType": "uint256",
          "name": "betAmount_",
          "type": "uint256"
        }
      ],
      "name": "registerSmartBet",
      "outputs": [
        {
          "internalType": "uint256",
          "name": "id",
          "type": "uint256"
        }
      ],
      "stateMutability": "nonpayable",
      "type": "function"
    },
    {
      "inputs": [
        {
          "internalType": "address",
          "name": "eth_",
          "type": "address"
        },
        {
          "internalType": "address",
          "name": "btc_",
          "type": "address"
        },
        {
          "internalType": "address",
          "name": "somi_",
          "type": "address"
        }
      ],
      "name": "setFeeds",
      "outputs": [],
      "stateMutability": "nonpayable",
      "type": "function"
    },
    {
      "inputs": [
        {
          "internalType": "uint256",
          "name": "",
          "type": "uint256"
        }
      ],
      "name": "smartBets",
      "outputs": [
        {
          "internalType": "address",
          "name": "user",
          "type": "address"
        },
        {
          "internalType": "string",
          "name": "asset",
          "type": "string"
        },
        {
          "internalType": "bool",
          "name": "isAbove",
          "type": "bool"
        },
        {
          "internalType": "uint256",
          "name": "triggerPrice",
          "type": "uint256"
        },
        {
          "internalType": "uint8",
          "name": "side",
          "type": "uint8"
        },
        {
          "internalType": "uint256",
          "name": "betAmount",
          "type": "uint256"
        },
        {
          "internalType": "bool",
          "name": "active",
          "type": "bool"
        }
      ],
      "stateMutability": "view",
      "type": "function"
    },
    {
      "inputs": [],
      "name": "somiFeed",
      "outputs": [
        {
          "internalType": "address",
          "name": "",
          "type": "address"
        }
      ],
      "stateMutability": "view",
      "type": "function"
    },
    {
      "inputs": [
        {
          "internalType": "address",
          "name": "",
          "type": "address"
        }
      ],
      "name": "userBalance",
      "outputs": [
        {
          "internalType": "uint256",
          "name": "",
          "type": "uint256"
        }
      ],
      "stateMutability": "view",
      "type": "function"
    },
    {
      "inputs": [
        {
          "internalType": "address",
          "name": "",
          "type": "address"
        },
        {
          "internalType": "uint256",
          "name": "",
          "type": "uint256"
        }
      ],
      "name": "userSmartBets",
      "outputs": [
        {
          "internalType": "uint256",
          "name": "",
          "type": "uint256"
        }
      ],
      "stateMutability": "view",
      "type": "function"
    },
    {
      "inputs": [
        {
          "internalType": "uint256",
          "name": "amount",
          "type": "uint256"
        }
      ],
      "name": "withdraw",
      "outputs": [],
      "stateMutability": "nonpayable",
      "type": "function"
    },
    {
      "stateMutability": "payable",
      "type": "receive"
    }
  ],
  "bytecode": "0x608060405234801561001057600080fd5b50604051611f31380380611f3183398101604081905261002f91610065565b60008054336001600160a01b031991821617909155600180549091166001600160a01b0392909216919091178155600355610095565b60006020828403121561007757600080fd5b81516001600160a01b038116811461008e57600080fd5b9392505050565b611e8d806100a46000396000f3fe6080604052600436106101445760003560e01c8063a0a66276116100b6578063c23d2a4a1161006f578063c23d2a4a14610398578063d25a7875146103b8578063d262fd7d146103ec578063db09061c14610402578063def114b61461043a578063e8b514c31461045a57600080fd5b8063a0a66276146102e3578063a6b491cc14610303578063b60d42881461031a578063beeb96fa14610322578063bf7324201461034f578063c0c1e0301461036557600080fd5b80633291472a116101085780633291472a146101fe57806353edf33d1461021e5780635e19d05c1461023e5780636fbdd3ee146102765780638da5cb5b146102a3578063938c6c84146102c357600080fd5b80630103c92b146101505780630548db12146101905780632e19b5f5146101b25780632e1a7d4d146101c857806330dc389c146101e857600080fd5b3661014b57005b600080fd5b34801561015c57600080fd5b5061017d61016b3660046114a5565b60066020526000908152604090205481565b6040519081526020015b60405180910390f35b34801561019c57600080fd5b506101b06101ab3660046114c7565b61047a565b005b3480156101be57600080fd5b5061017d6101f481565b3480156101d457600080fd5b506101b06101e336600461150a565b6104e4565b3480156101f457600080fd5b5061017d61025881565b34801561020a57600080fd5b5061017d6102193660046115fa565b610620565b34801561022a57600080fd5b506101b06102393660046116bc565b6107d2565b34801561024a57600080fd5b5060075461025e906001600160a01b031681565b6040516001600160a01b039091168152602001610187565b34801561028257600080fd5b506102966102913660046114a5565b6107e6565b604051610187919061176e565b3480156102af57600080fd5b5060005461025e906001600160a01b031681565b3480156102cf57600080fd5b5061017d6102de3660046117b2565b610852565b3480156102ef57600080fd5b506101b06102fe36600461150a565b610883565b34801561030f57600080fd5b5061017d620186a081565b6101b061091d565b34801561032e57600080fd5b5061034261033d36600461150a565b610999565b604051610187919061182c565b34801561035b57600080fd5b5061017d60035481565b34801561037157600080fd5b5061038561038036600461150a565b610ad8565b60405161018797969594939291906118a0565b3480156103a457600080fd5b5060085461025e906001600160a01b031681565b3480156103c457600080fd5b5061017d7f6e838f2a03741f5f2aff5480963b672fb0dd8430a4dc75db9b67ce009733c9fe81565b3480156103f857600080fd5b5061017d61271081565b34801561040e57600080fd5b5061017d61041d3660046118f3565b805160208183018101805160028252928201919093012091525481565b34801561044657600080fd5b5060015461025e906001600160a01b031681565b34801561046657600080fd5b5060095461025e906001600160a01b031681565b6000546001600160a01b031633146104a5576040516330cd747160e01b815260040160405180910390fd5b600780546001600160a01b039485166001600160a01b031991821617909155600880549385169382169390931790925560098054919093169116179055565b8060000361050557604051631f2a200560e01b815260040160405180910390fd5b3360009081526006602052604090205481111561053557604051631e9acf1760e31b815260040160405180910390fd5b3360009081526006602052604081208054839290610554908490611946565b9091555050604051600090339083908381818185875af1925050503d806000811461059b576040519150601f19603f3d011682016040523d82523d6000602084013e6105a0565b606091505b50509050806105e75760405162461bcd60e51b815260206004820152600f60248201526e151c985b9cd9995c8819985a5b1959608a1b604482015260640160405180910390fd5b60405182815233907f7084f5476618d8e60b11ef0d7d3f06914655adb8793e28ff7f018d4c76d505d59060200160405180910390a25050565b60008160000361064357604051631f2a200560e01b815260040160405180910390fd5b3360009081526006602052604090205482111561067357604051631e9acf1760e31b815260040160405180910390fd5b6003805490600061068383611959565b909155506040805160e08101825233815260208082018a8152891515838501526060830189905260ff8816608084015260a08301879052600160c084018190526000868152600490935293909120825181546001600160a01b0319166001600160a01b0390911617815590519394509092909182019061070390826119f4565b5060408281015160028301805491151560ff1992831617905560608401516003840155608084015160048401805460ff9290921691831691909117905560a084015160058085019190915560c090940151600690930180549315159390911692909217909155336000818152602093845282812080546001810182559082529390209092018390555182907fd90173bfc16df5c14b7d2d076fe28cd53889ac5fee6feca3477e8029bb58ea86906107c1908a90899089908990611ab4565b60405180910390a395945050505050565b6107df8585858585610baf565b5050505050565b6001600160a01b03811660009081526005602090815260409182902080548351818402810184019094528084526060939283018282801561084657602002820191906000526020600020905b815481526020019060010190808311610832575b50505050509050919050565b6005602052816000526040600020818154811061086e57600080fd5b90600052602060002001600091509150505481565b6000818152600460205260409020600681015460ff166108b657604051637779b07160e01b815260040160405180910390fd5b80546001600160a01b031633146108e057604051632afcf13760e11b815260040160405180910390fd5b60068101805460ff19169055604051339083907fab3799442877990f8c9804602b351375674ab3839030c9cd416cc1844d86791290600090a35050565b3460000361093e57604051631f2a200560e01b815260040160405180910390fd5b336000908152600660205260408120805434929061095d908490611ae6565b909155505060405134815233907f5af8184bef8e4b45eb9f6ed7734d04da38ced226495548f46e0c8ff8d7d9a5249060200160405180910390a2565b6040805160e08101825260008082526060602083018190529282018190529181018290526080810182905260a0810182905260c0810191909152600082815260046020908152604091829020825160e0810190935280546001600160a01b031683526001810180549192840191610a0f90611972565b80601f0160208091040260200160405190810160405280929190818152602001828054610a3b90611972565b8015610a885780601f10610a5d57610100808354040283529160200191610a88565b820191906000526020600020905b815481529060010190602001808311610a6b57829003601f168201915b5050509183525050600282015460ff908116151560208301526003830154604083015260048301548116606083015260058301546080830152600690920154909116151560a09091015292915050565b600460205260009081526040902080546001820180546001600160a01b039092169291610b0490611972565b80601f0160208091040260200160405190810160405280929190818152602001828054610b3090611972565b8015610b7d5780601f10610b5257610100808354040283529160200191610b7d565b820191906000526020600020905b815481529060010190602001808311610b6057829003601f168201915b5050506002840154600385015460048601546005870154600690970154959660ff938416969295509083169350911687565b600283106107df577f6e838f2a03741f5f2aff5480963b672fb0dd8430a4dc75db9b67ce009733c9fe84846000818110610beb57610beb611af9565b90506020020135036107df576000610c0582840184611b0f565b50905080600003610c1657506107df565b6000610c2187610c5a565b90508051600003610c335750506107df565b610c3d8183610d11565b610c478183610f7e565b610c518183611159565b50505050505050565b6007546060906001600160a01b0390811690831603610c9257505060408051808201909152600381526208aa8960eb1b602082015290565b6008546001600160a01b0390811690831603610cc757505060408051808201909152600381526242544360e81b602082015290565b6009546001600160a01b0390811690831603610cfd575050604080518082019091526004815263534f4d4960e01b602082015290565b505060408051602081019091526000815290565b60015460405163de7d891b60e01b81526000916001600160a01b03169063de7d891b90610d42908690600401611b31565b602060405180830381865afa158015610d5f573d6000803e3d6000fd5b505050506040513d601f19601f82011682018060405250810190610d839190611b44565b905080600003610d9257505050565b60015460405163eb44fdd360e01b815260048101839052600091829182916001600160a01b03169063eb44fdd390602401600060405180830381865afa158015610de0573d6000803e3d6000fd5b505050506040513d6000823e601f3d908101601f19168201604052610e089190810190611bad565b505050965096505095505050508060ff16600014610e2857505050505050565b828510610ed75760018054604051632bdef22360e11b81526004810187905260248101929092526001600160a01b0316906357bde44690604401600060405180830381600087803b158015610e7c57600080fd5b505af1158015610e90573d6000803e3d6000fd5b50505050837ff8ab697274631a41e4c654ce405a620a61a714bfacba265c6ddc2f1eda8f4213876001604051610ec7929190611c67565b60405180910390a2505050505050565b814210610f7657600154604051632bdef22360e11b815260048101869052600060248201526001600160a01b03909116906357bde44690604401600060405180830381600087803b158015610f2b57600080fd5b505af1158015610f3f573d6000803e3d6000fd5b50505050837ff8ab697274631a41e4c654ce405a620a61a714bfacba265c6ddc2f1eda8f4213876000604051610ec7929190611c67565b505050505050565b60015460405163de7d891b60e01b81526001600160a01b039091169063de7d891b90610fae908590600401611b31565b602060405180830381865afa158015610fcb573d6000803e3d6000fd5b505050506040513d601f19601f82011682018060405250810190610fef9190611b44565b15610ff8575050565b6000611003836113b7565b90508060000361101257505050565b60008161101f8185611c8b565b6110299190611cad565b905060028460405161103b9190611cc4565b90815260200160405180910390205481116110565750505050565b806002856040516110679190611cc4565b9081526040519081900360200190205560006110838383611ae6565b90506000611091868361145e565b600154604051639bd1d51360e01b81529192506000916001600160a01b0390911690639bd1d513906110d1908a90869088908c9061025890600401611ce0565b6020604051808303816000875af11580156110f0573d6000803e3d6000fd5b505050506040513d601f19601f820116820180604052508101906111149190611b44565b9050807f59d922c62c8d9de413ead546958868814c5e1a3bcc20bf38b3743733e870fe3c8885604051611148929190611d23565b60405180910390a250505050505050565b60015b6003548110156113b2576000818152600460205260409020600681015460ff1661118657506113aa565b8351602085012060405161119e906001840190611d45565b6040518091039020146111b157506113aa565b600281015460009060ff166111cd5781600301548411156111d6565b81600301548410155b9050806111e45750506113aa565b600582015482546001600160a01b0316600090815260066020526040902054101561121a5750600601805460ff191690556113aa565b60015460405163de7d891b60e01b81526000916001600160a01b03169063de7d891b9061124b908990600401611b31565b602060405180830381865afa158015611268573d6000803e3d6000fd5b505050506040513d601f19601f8201168201806040525081019061128c9190611b44565b90508060000361129e575050506113aa565b600583015483546001600160a01b0316600090815260066020526040812080549091906112cc908490611946565b909155505060068301805460ff1916905560018054600585015460048601546001600160a01b03909216926303edf91492859160ff9091169081111561131457611314611dbb565b6040518463ffffffff1660e01b8152600401611331929190611dd1565b6000604051808303818588803b15801561134a57600080fd5b505af115801561135e573d6000803e3d6000fd5b505085546040518581526001600160a01b0390911693508792507fd295e8294322651166a1ffe68de27eed09be1c33e70f11b6bb420cc2565b0b1c915060200160405180910390a35050505b60010161115c565b505050565b805160208201206000907f55514145c7ef4e1948f87e0eb4d28d3e34763f4d4cdf3bc449800860a9d0a00c81016113f2575061271092915050565b7fe98e2830be1a7e4156d656a7505e65d08c67660dc618072422e9c78053c261e981036114245750620186a092915050565b7f5f30304a5db4e9c0a1e1fd3e823f7f455e1b3a9a3be2b26770e47784751fbd30810361145557506101f492915050565b50600092915050565b6060826040516020016114719190611e03565b60405160208183030381529060405290505b92915050565b80356001600160a01b03811681146114a057600080fd5b919050565b6000602082840312156114b757600080fd5b6114c082611489565b9392505050565b6000806000606084860312156114dc57600080fd5b6114e584611489565b92506114f360208501611489565b915061150160408501611489565b90509250925092565b60006020828403121561151c57600080fd5b5035919050565b634e487b7160e01b600052604160045260246000fd5b604051601f8201601f1916810167ffffffffffffffff8111828210171561156257611562611523565b604052919050565b600067ffffffffffffffff82111561158457611584611523565b50601f01601f191660200190565b600082601f8301126115a357600080fd5b81356115b66115b18261156a565b611539565b8181528460208386010111156115cb57600080fd5b816020850160208301376000918101602001919091529392505050565b60ff811681146115f757600080fd5b50565b600080600080600060a0868803121561161257600080fd5b853567ffffffffffffffff81111561162957600080fd5b61163588828901611592565b9550506020860135801515811461164b57600080fd5b9350604086013592506060860135611662816115e8565b949793965091946080013592915050565b60008083601f84011261168557600080fd5b50813567ffffffffffffffff81111561169d57600080fd5b6020830191508360208285010111156116b557600080fd5b9250929050565b6000806000806000606086880312156116d457600080fd5b6116dd86611489565b9450602086013567ffffffffffffffff808211156116fa57600080fd5b818801915088601f83011261170e57600080fd5b81358181111561171d57600080fd5b8960208260051b850101111561173257600080fd5b60208301965080955050604088013591508082111561175057600080fd5b5061175d88828901611673565b969995985093965092949392505050565b6020808252825182820181905260009190848201906040850190845b818110156117a65783518352928401929184019160010161178a565b50909695505050505050565b600080604083850312156117c557600080fd5b6117ce83611489565b946020939093013593505050565b60005b838110156117f75781810151838201526020016117df565b50506000910152565b600081518084526118188160208601602086016117dc565b601f01601f19169290920160200192915050565b602080825282516001600160a01b03168282015282015160e0604083015260009061185b610100840182611800565b90506040840151151560608401526060840151608084015260ff60808501511660a084015260a084015160c084015260c0840151151560e08401528091505092915050565b6001600160a01b038816815260e0602082018190526000906118c490830189611800565b961515604083015250606081019490945260ff92909216608084015260a0830152151560c09091015292915050565b60006020828403121561190557600080fd5b813567ffffffffffffffff81111561191c57600080fd5b61192884828501611592565b949350505050565b634e487b7160e01b600052601160045260246000fd5b8181038181111561148357611483611930565b60006001820161196b5761196b611930565b5060010190565b600181811c9082168061198657607f821691505b6020821081036119a657634e487b7160e01b600052602260045260246000fd5b50919050565b601f8211156113b2576000816000526020600020601f850160051c810160208610156119d55750805b601f850160051c820191505b81811015610f76578281556001016119e1565b815167ffffffffffffffff811115611a0e57611a0e611523565b611a2281611a1c8454611972565b846119ac565b602080601f831160018114611a575760008415611a3f5750858301515b600019600386901b1c1916600185901b178555610f76565b600085815260208120601f198616915b82811015611a8657888601518255948401946001909101908401611a67565b5085821015611aa45787850151600019600388901b60f8161c191681555b5050505050600190811b01905550565b608081526000611ac76080830187611800565b60208301959095525060ff929092166040830152606090910152919050565b8082018082111561148357611483611930565b634e487b7160e01b600052603260045260246000fd5b60008060408385031215611b2257600080fd5b50508035926020909101359150565b6020815260006114c06020830184611800565b600060208284031215611b5657600080fd5b5051919050565b600082601f830112611b6e57600080fd5b8151611b7c6115b18261156a565b818152846020838601011115611b9157600080fd5b6119288260208301602087016117dc565b80516114a0816115e8565b6000806000806000806000806000806101408b8d031215611bcd57600080fd5b8a51995060208b015167ffffffffffffffff80821115611bec57600080fd5b611bf88e838f01611b5d565b9a5060408d0151915080821115611c0e57600080fd5b50611c1b8d828e01611b5d565b98505060608b0151965060808b0151955060a08b01519450611c3f60c08c01611ba2565b935060e08b015192506101008b015191506101208b015190509295989b9194979a5092959850565b604081526000611c7a6040830185611800565b905082151560208301529392505050565b600082611ca857634e487b7160e01b600052601260045260246000fd5b500490565b808202811582820484141761148357611483611930565b60008251611cd68184602087016117dc565b9190910192915050565b60a081526000611cf360a0830188611800565b8281036020840152611d058188611800565b60408401969096525050606081019290925260809091015292915050565b604081526000611d366040830185611800565b90508260208301529392505050565b6000808354611d5381611972565b60018281168015611d6b5760018114611d8057611daf565b60ff1984168752821515830287019450611daf565b8760005260208060002060005b85811015611da65781548a820152908401908201611d8d565b50505082870194505b50929695505050505050565b634e487b7160e01b600052602160045260246000fd5b8281526040810160028310611df657634e487b7160e01b600052602160045260246000fd5b8260208301529392505050565b6402bb4b636160dd1b815260008251611e238160058501602087016117dc565b7f206869742074617267657420707269636520696e203130206d696e757465733f600593909101928301525060250191905056fea26469706673582212209613e76e562f8d8eb5492b963c8e91976d9ba9b628dc414d625728e15e0305e964736f6c63430008180033",
  "linkReferences": {},
  "deployedLinkReferences": {}
}